:020000040800F2
:1000000000500020058E0008BD8E0008C98E000833
:10001000D58E0008E18E0008ED8E0008000000007B
:10002000000000000000000000000000F98E000841
:10003000058F000800000000118F00081D8F0008C8
:10004000298F0008358F0008418F00084D8F000868
:10005000598F0008658F0008718F00087D8F000898
:10006000898F0008958F0008A18F0008AD8F0008C8
:10007000B98F0008C58F0008D18F0008DD8F0008F8
:10008000E98F0008F58F0008019000080D90000826
:100090001990000825900008319000083D90000854
:1000A0004990000855900008619000086D90000884
:1000B0008590000879900008919000089D900008B4
:1000C000A9900008B5900008C1900008CD900008E4
:1000D000D9900008E5900008F1900008FD90000814
:1000E0000991000815910008219100080000000006
:1000F0000000000000000000000000000000000000
:0C01000000000000000000002D9100082D
:10010C0010B5054C237833B9044B13B10448AFF345
:10011C0000800123237010BD80000020000000002F
:10012C00A09A000808B5034B1BB103490348AFF371
:10013C00008008BD0000000084000020A09A000888
:10014C00034613F8012B002AFBD1181A013870470B
:10015C0080F0004002E000BF81F0004142001FBF70
:10016C005FEA410392EA030F7FEA226C7FEA236C79
:10017C006AD04FEA1262D2EB1363C1BFD21841406E
:10018C0048404140B8BF5B42192B88BF704710F004
:10019C00004F40F4000020F07F4018BF404211F0A7
:1001AC00004F41F4000121F07F4118BF494292EA0F
:1001BC00030F3FD0A2F1010241FA03FC10EB0C003B
:1001CC00C3F1200301FA03F100F0004302D54942C8
:1001DC0060EB4000B0F5000F13D3B0F1807F06D375
:1001EC0040084FEA310102F10102FE2A51D2B1F16D
:1001FC00004F40EBC25008BF20F0010040EA030062
:10020C007047490040EB0000013A28BFB0F5000FE1
:10021C00EDD2B0FA80FCACF1080CB2EB0C0200FA97
:10022C000CF0AABF00EBC25052421843BCBFD040E6
:10023C001843704792F0000F81F4000106BF80F460
:10024C0000000132013BB5E74FEA41037FEA226C23
:10025C0018BF7FEA236C21D092EA030F04D092F0EE
:10026C00000F08BF0846704790EA010F1CBF002022
:10027C00704712F07F4F04D1400028BF40F000407F
:10028C00704712F100723CBF00F50000704700F09F
:10029C00004343F0FE4040F4000070477FEA2262C6
:1002AC0016BF08467FEA23630146420206BF5FEA97
:1002BC00412390EA010F40F4800070474FF0000397
:1002CC0004E000BF10F0004348BF40425FEA000C5E
:1002DC0008BF704743F0964301464FF000001CE006
:1002EC0050EA010208BF70474FF000030AE000BF5C
:1002FC0050EA010208BF704711F0004302D540429A
:10030C0061EB41015FEA010C02BF8446014600200B
:10031C0043F0B64308BFA3F18053A3F50003BCFA26
:10032C008CF2083AA3EBC25310DB01FA02FC6344D3
:10033C0000FA02FCC2F12002BCF1004F20FA02F2DA
:10034C0043EB020008BF20F00100704702F12002CD
:10035C0001FA02FCC2F1200250EA4C0021FA02F22E
:10036C0043EB020008BF20EADC7070474FF0FF0C33
:10037C001CEAD0521EBF1CEAD15392EA0C0F93EA2E
:10038C000C0F6FD01A4480EA010C400218BF5FEAD0
:10039C0041211ED04FF0006343EA501043EA511143
:1003AC00A0FB01310CF00040B1F5000F3EBF49003D
:1003BC0041EAD3715B0040EA010062F17F02FD2A41
:1003CC001DD8B3F1004F40EBC25008BF20F0010024
:1003DC00704790F0000F0CF0004C08BF49024CEA3B
:1003EC00502040EA51207F3AC2BFD2F1FF0340EACD
:1003FC00C250704740F400004FF00003013A5DDC3E
:10040C0012F1190FDCBF00F000407047C2F100027E
:10041C00410021FA02F1C2F1200200FA02FC5FEA6B
:10042C00310040F1000053EA4C0308BF20EADC70B5
:10043C00704792F0000F00F0004C02BF400010F427
:10044C00000F013AF9D040EA0C0093F0000F01F0D4
:10045C00004C02BF490011F4000F013BF9D041EAF6
:10046C000C018FE70CEAD15392EA0C0F18BF93EAF8
:10047C000C0F0AD030F0004C18BF31F0004CD8D122
:10048C0080EA010000F00040704790F0000F17BFA9
:10049C0090F0004F084691F0000F91F0004F14D0EF
:1004AC0092EA0C0F01D142020FD193EA0C0F03D147
:1004BC004B0218BF084608D180EA010000F000404A
:1004CC0040F0FE4040F40000704740F0FE4040F425
:1004DC00400070474FF0FF0C1CEAD0521EBF1CEAC4
:1004EC00D15392EA0C0F93EA0C0F69D0A2EB0302E2
:1004FC0080EA010C49024FEA402037D04FF080537C
:10050C0043EA111143EA10130CF000408B4238BF40
:10051C005B0042F17D024FF4000C8B4224BF5B1A4E
:10052C0040EA0C00B3EB510F24BFA3EB510340EA9C
:10053C005C00B3EB910F24BFA3EB910340EA9C004A
:10054C00B3EBD10F24BFA3EBD10340EADC001B01BA
:10055C0018BF5FEA1C1CE0D1FD2A3FF650AF8B425E
:10056C0040EBC25008BF20F0010070470CF0004C6B
:10057C004CEA50207F32C2BFD2F1FF0340EAC25096
:10058C00704740F400004FF00003013A37E792F057
:10059C00000F00F0004C02BF400010F4000F013AB5
:1005AC00F9D040EA0C0093F0000F01F0004C02BFB0
:1005BC00490011F4000F013BF9D041EA0C0195E719
:1005CC000CEAD15392EA0C0F08D142027FF47DAFB2
:1005DC0093EA0C0F7FF470AF084676E793EA0C0FA2
:1005EC0004D14B023FF44CAF08466EE730F0004CA0
:1005FC0018BF31F0004CCAD130F000427FF45CAF30
:10060C0031F000437FF43CAF5FE700BF4FEA40029C
:10061C00B2F1FE4F0FD34FF09E03B3EB12620DD924
:10062C004FEA002343F0004310F0004F23FA02F08E
:10063C0018BF404270474FF00000704712F1610F35
:10064C0001D1420205D110F0004008BF6FF000400C
:10065C0070474FF00000704742000ED2B2F1FE4FCF
:10066C000BD34FF09E03B3EB126209D44FEA002375
:10067C0043F0004323FA02F070474FF0000070473C
:10068C0012F1610F01D1420202D14FF0FF307047DD
:10069C004FF00000704700BF80B500AF03F0CCFFF7
:1006AC0000F03EF800F022FB00F092F800F0CEF8DB
:1006BC0000F028F900F0D4F900F020FA00F0A0FACC
:1006CC0000F0F2F800F0E8FA03F024FB104806F012
:1006DC00FDFC104806F0FAFC0F4806F0F7FC0F483A
:1006EC0006F0F4FC00F0B4FD00210B4806F0A6FD6A
:1006FC000421094806F0A2FD0021054806F09EFDE4
:10070C000821034807F034FC00F012FEFCE700BFA0
:10071C007401002028020020DC020020900300203D
:10072C0080B594B000AF07F12803282200211846A9
:10073C0008F020FD07F1140300221A605A609A6039
:10074C00DA601A613B1D00221A605A609A60DA6006
:10075C000223BB620123BB631023FB6302237B6474
:10076C000023BB644FF42013FB6407F128031846E5
:10077C0003F0C4FF0346002B01D000F049FB0F230C
:10078C007B610223BB610023FB614FF480633B62FE
:10079C0000237B6207F114030121184604F030FAA0
:1007AC000346002B01D000F033FB02237B604FF497
:1007BC008043FB603B1D184604F0BAFB0346002B3C
:1007CC0001D000F025FB00BF5037BD4680BD0000B6
:1007DC0080B584B000AF3B1D00221A605A609A604D
:1007EC00184B194A1A60174B00229A60154B0022BD
:1007FC001A73144B00221A75124B4FF46022DA61F3
:10080C00104B00225A600F4B01221A610D4803F065
:10081C00E7FA0346002B01D000F0FAFA00237B60C4
:10082C000123BB600023FB603B1D1946054803F008
:10083C006FFD0346002B01D000F0EAFA00BF103721
:10084C00BD4680BD9C0000200024014080B500AF57
:10085C00124B134A1A60114B124A5A600F4B00226A
:10086C009A600E4B0022DA600C4B4FF480421A61F6
:10087C000A4B00225A61094B00229A61074B002255
:10088C00DA61064B00221A62044805F043FA03466B
:10089C00002B01D000F0BCFA00BF80BDCC000020C2
:1008AC0000540040A086010080B500AF124B134AE3
:1008BC001A60114B124A5A600F4B00229A600E4B71
:1008CC000022DA600C4B4FF480421A610A4B002272
:1008DC005A61094B00229A61074B0022DA61064BE0
:1008EC0000221A62044805F015FA0346002B01D0C9
:1008FC0000F08EFA00BF80BD20010020005800409F
:10090C00A086010080B596B000AF07F14803002225
:10091C001A605A609A60DA6007F1400300221A608C
:10092C005A6007F1240300221A605A609A60DA6058
:10093C001A615A619A613B1D20220021184608F069
:10094C0019FC454B454A1A60434B40F2BF325A6082
:10095C00414B00229A60404B4FF47A72DA603E4B66
:10096C0000221A613C4B00225A613B4B80229A6157
:10097C00394806F04FFB0346002B01D000F048FA33
:10098C004FF48053BB6407F148031946324806F014
:10099C00DDFE0346002B01D000F03AFA2E4806F09B
:1009AC00E7FB0346002B01D000F032FA00233B6436
:1009BC0000237B6407F140031946274807F076FBB8
:1009CC000346002B01D000F023FA60237B62002346
:1009DC00BB620023FB6200233B6300237B63002389
:1009EC00BB630023FB6307F12403002219461A485A
:1009FC0006F0EEFD0346002B01D000F009FA07F1DA
:100A0C00240308221946144806F0E2FD0346002B85
:100A1C0001D000F0FDF900237B600023BB600023B4
:100A2C00FB6000233B6100237B614FF40053BB61EF
:100A3C0000233B623B1D1946074807F095FB034614
:100A4C00002B01D000F0E4F9034800F041FB00BF9B
:100A5C005837BD4680BD00BF74010020002C0140FA
:100A6C0080B586B000AF07F1080300221A605A6007
:100A7C009A60DA603B4600221A605A601E4B4FF0B7
:100A8C0080421A601C4B40F2DF125A601A4B002253
:100A9C009A60194B4FF47A72DA60174B00221A6184
:100AAC00154B80229A61144806F0B4FA0346002BC9
:100ABC0001D000F0ADF94FF48053BB6007F108038F
:100ACC0019460D4806F042FE0346002B01D000F0FB
:100ADC009FF900233B6000237B603B461946064888
:100AEC0007F0E4FA0346002B01D000F091F900BFA7
:100AFC001837BD4680BD00BF2802002080B58EB0DF
:100B0C0000AF07F1280300221A605A609A60DA607D
:100B1C0007F1200300221A605A603B1D00221A6064
:100B2C005A609A60DA601A615A619A61324B334AA0
:100B3C001A60314B40F2DF125A602F4B00229A6040
:100B4C002D4B4FF47A72DA602B4B00221A612A4B30
:100B5C0080229A61284806F05DFA0346002B01D0EA
:100B6C0000F056F94FF48053BB6207F12803194685
:100B7C00214806F0EBFD0346002B01D000F048F9AC
:100B8C001D4806F0F5FA0346002B01D000F040F9A1
:100B9C0000233B6200237B6207F1200319461648B1
:100BAC0007F084FA0346002B01D000F031F96023E2
:100BBC007B600023BB600023FB6000237B613B1D3B
:100BCC00002219460C4806F003FD0346002B01D009
:100BDC0000F01EF93B1D04221946074806F0F8FCEC
:100BEC000346002B01D000F013F9034800F070FA13
:100BFC0000BF3837BD4680BDDC0200200004004039
:100C0C0080B586B000AF07F1080300221A605A6065
:100C1C009A60DA603B4600221A605A601C4B1D4AEF
:100C2C001A601B4B2F225A60194B00229A60184BEA
:100C3C006422DA60164B00221A61154B80229A61ED
:100C4C00134806F0E7F90346002B01D000F0E0F85A
:100C5C004FF48053BB6007F1080319460C4806F0AB
:100C6C0075FD0346002B01D000F0D2F800233B6049
:100C7C0000237B603B461946054807F017FA0346EC
:100C8C00002B01D000F0C4F800BF1837BD4680BD62
:100C9C00900300200008004080B500AF114B124AB1
:100CAC001A60104B4FF416525A600E4B00229A6089
:100CBC000C4B0022DA600B4B00221A61094B0C2200
:100CCC005A61084B00229A61064B0022DA610548F2
:100CDC0007F0DAFA0346002B01D000F099F800BFB8
:100CEC0080BD00BF440400200044004080B588B0A3
:100CFC0000AF07F1100300221A605A609A60DA60A4
:100D0C003F4B9B693E4A43F0100393613C4B9B69FC
:100D1C0003F01003FB60FB68394B9B69384A43F0C6
:100D2C0004039361364B9B6903F00403BB60BB68FF
:100D3C00334B9B69324A43F008039361304B9B69F8
:100D4C0003F008037B607B6800224FF400512D48B0
:100D5C0004F0FFFB002202212B4804F0FAFB0022D6
:100D6C0041F23B31294804F0F4FB4FF400533B6152
:100D7C0001237B610023BB610223FB6107F110039C
:100D8C001946204804F04AFA02233B6101237B6197
:100D9C000023BB610223FB6107F1100319461A48BB
:100DAC0004F03CFA49F610633B6100237B6100239D
:100DBC00BB6107F110031946134804F02FFA41F2F6
:100DCC003B333B6101237B610023BB610223FB614D
:100DDC0007F1100319460D4804F020FA4FF4804334
:100DEC003B6100237B610023BB6107F110031946B3
:100DFC00064804F013FA00BF2037BD4680BD00BF83
:100E0C00001002400010014000080140000C01409D
:100E1C0080B400AF72B600BFFEE7000080B582B0B0
:100E2C0000AF78607B681B68B3F1804F01D100F094
:100E3C00F3FA7B681B68044A934201D100F06AFA0A
:100E4C0000BF0837BD4680BD0008004080B485B0A7
:100E5C0000AF154B9B69144A43F001039361124B8D
:100E6C009B6903F00103BB60BB680F4BDB690E4A47
:100E7C0043F08053D3610C4BDB6903F080537B60F0
:100E8C007B680A4B5B68FB60FB6823F0E063FB60EC
:100E9C00FB6843F00073FB60044AFB68536000BFBF
:100EAC001437BD4680BC7047001002400000014062
:100EBC0080B588B000AF786007F1100300221A608B
:100ECC005A609A60DA607B681B68144A934221D19D
:100EDC00134B9B69124A43F400739361104B9B694B
:100EEC0003F40073FB60FB680D4B9B690C4A43F0E9
:100EFC00040393610A4B9B6903F00403BB60BB685A
:100F0C0001233B6103237B6107F11003194605485C
:100F1C0004F084F900BF2037BD4680BD0024014099
:100F2C00001002400008014080B58AB000AF786024
:100F3C0007F1180300221A605A609A60DA607B6825
:100F4C001B682B4A934224D12A4B9B69294A43F0B4
:100F5C0008039361274B9B6903F008037B617B6952
:100F6C00C023BB611223FB6103237B6207F11803CF
:100F7C001946214804F052F91E4BDB691D4A43F413
:100F8C000013D3611B4BDB6903F400133B613B691A
:100F9C0029E07B681B68194A934224D1154B9B6945
:100FAC00144A43F008039361124B9B6903F0080346
:100FBC00FB60FB684FF44063BB611223FB610323AE
:100FCC007B6207F1180319460B4804F027F9094B0B
:100FDC00DB69084A43F48003D361064BDB6903F4F5
:100FEC008003BB60BB6800BF2837BD4680BD00BF17
:100FFC000054004000100240000C0140005800401A
:10100C0080B586B000AF78607B681B682C4A934231
:10101C000CD12C4B9B692B4A43F400639361294BF5
:10102C009B6903F400637B617B6944E07B681B680C
:10103C00B3F1804F14D1234BDB69224A43F00103F7
:10104C00D361204BDB6903F001033B613B69002258
:10105C0003211C2004F01DFC1C2004F036FC2AE0AB
:10106C007B681B68184A93420CD1164BDB69154AF6
:10107C0043F00203D361134BDB6903F00203FB6003
:10108C00FB6818E07B681B68104A934213D10D4B28
:10109C00DB690C4A43F00403D3610A4BDB6903F0B0
:1010AC000403BB60BB68002201211E2004F0F1FB8D
:1010BC001E2004F00AFC00BF1837BD4680BD00BFDF
:1010CC00002C0140001002400004004000080040C9
:1010DC0080B58AB000AF786007F1180300221A605F
:1010EC005A609A60DA607B681B682B4A934232D153
:1010FC002A4B9B69294A43F008039361274B9B6950
:10110C0003F008037B617B69244B9B69234A43F002
:10111C0004039361214B9B6903F004033B613B691E
:10112C004FF40043BB610223FB6102237B6207F196
:10113C00180319461A4804F071F84FF48073BB6118
:10114C000223FB6102237B6207F118031946154841
:10115C0004F064F81CE07B681B68134A934217D1B7
:10116C000E4B9B690D4A43F0040393610B4B9B6937
:10117C0003F00403FB60FB68C023BB610223FB612B
:10118C0002237B6207F118031946064804F046F85F
:10119C0000BF2837BD4680BD002C01400010024026
:1011AC00000C0140000801400004004080B588B0EC
:1011BC0000AF786007F1100300221A605A609A6041
:1011CC00DA607B681B681F4A934237D11E4BDB6980
:1011DC001D4A43F40033D3611B4BDB6903F400332A
:1011EC00FB60FB68184B9B69174A43F0040393613F
:1011FC00154B9B6903F00403BB60BB6804233B6184
:10120C0002237B610323FB6107F1100319460F488E
:10121C0004F004F808233B6100237B610023BB61CD
:10122C0007F110031946094803F0F8FF00220021CA
:10123C00262004F02EFB262004F047FB00BF2037AD
:10124C00BD4680BD00440040001002400008014033
:10125C0080B500AF01F03CFD02F04AFC00F0D8FA7A
:10126C0000BF80BD80B400AF00BFBD4680BC7047DE
:10127C0080B500AF00F076FD00F024FB01F07AF8A9
:10128C0002F05CFC00BF80BD80B500AF00F0C2F97D
:10129C0001F098FD184B1B78012B03D1174B1B78D1
:1012AC00032B07D0144B1B78022B08D1134B1B7844
:1012BC00032B04D102F06CFD114B01221A700F4B61
:1012CC001A780D4B1A700E4B1B78012B11D102F0B2
:1012DC00C7FC0C4B1B780133DAB20A4B1A70094B62
:1012EC001B78072B05D9064B00221A70054B0022E0
:1012FC001A7000BF80BD00BF1C0500202D0500200A
:10130C001D0500201E05002080B400AF00BFBD46A7
:10131C0080BC704780B400AF044B1B680133034A98
:10132C00136000BFBD4680BC704700BFB8040020EE
:10133C0080B582B000AF144B93F85630012B14D10A
:10134C00124B7B60104A7B6813660F4B002283F8AC
:10135C005620032000F0E8F8FFF796FF032000F07A
:10136C000BF9032000F090F80BE0042000F0DCF8FF
:10137C00FFF7CAFF042000F0FFF8042000F084F807
:10138C0000BF0837BD4680BDB80400209512000888
:10139C0080B582B000AF1D4B5B6801331B4A5360B4
:1013AC001A4B012283F85420184B5A68184BA3FB94
:1013BC0002135B09642101FB03F3D31A002B08D140
:1013CC00124BDB680133114AD360104B012283F8B6
:1013DC0056200E4B93F85430012B13D10D4B7B60E0
:1013EC000A4A7B689365094B002283F8542001203C
:1013FC0000F09AF8FFF736FF012000F0BDF801204D
:10140C0000F042F800BF0837BD4680BDB80400208C
:10141C001F85EB517112000880B582B000AF134BE1
:10142C009B680133114A9360104B012283F85520BD
:10143C000E4B93F85530012B13D10D4B7B600B4A9F
:10144C007B68D365094B002283F85520022000F0FD
:10145C006BF8FFF70DFF022000F08EF8022000F071
:10146C0013F800BF0837BD4680BD00BFB80400208C
:10147C007D12000880B400AF024B1B681846BD46B5
:10148C0080BC7047B804002080B586B000AF03461E
:10149C00FB7100233B6100237B610023FB60FFF7A2
:1014AC00E9FF3861FB79032B0ED0032B10DC012BE9
:1014BC0002D0022B04D00BE01A4B9B6A7B6107E035
:1014CC00184BDB6A7B6103E0164B1B6B7B6100BF27
:1014DC003A697B69D31AFB603B697B61FB79032B0F
:1014EC0014D0032B1ADC012B02D0022B07D015E0F1
:1014FC000C4AFB6813640B4A7B6993620DE0094A42
:10150C00FB685364074A7B69D36206E0054AFB68B3
:10151C009364044A7B69136300BF00BF00BF183794
:10152C00BD4680BDB804002080B584B000AF034632
:10153C00FB710023FB60FFF79DFFF860FB79032B29
:10154C000ED0032B11DC012B02D0022B04D00CE0AB
:10155C00084AFB68136107E0064AFB68936103E0E5
:10156C00044AFB68136200BF00BF00BF1037BD46C2
:10157C0080BD00BFB804002080B586B000AF034624
:10158C00FB7100233B6100237B610023FB60FFF7B1
:10159C0071FF3861FB79032B0ED0032B10DC012B70
:1015AC0002D0022B04D00BE0194B1B697B6107E0C6
:1015BC00174B9B697B6103E0154B1B6A7B6100BF7A
:1015CC003A697B69D31AFB60FB79032B14D0032B8C
:1015DC001ADC012B02D0022B07D015E00C4AFB6859
:1015EC0053630B4A3B6953610DE0094AFB689363F3
:1015FC00074A3B69D36106E0054AFB68D363044A9A
:10160C003B69536200BF00BF00BF1837BD4680BDA9
:10161C00B804002080B500AF744B1B8801339AB21C
:10162C00724B1A80724B1B8801339AB2704B1A8022
:10163C006E4B1B88142B02D96C4B00221A806C4BFE
:10164C001B880A2B02D96A4B00221A80694B1B6833
:10165C00002B09D1684B1B78012B05D101224FF4CB
:10166C008071664803F075FF624B1B68002B09D133
:10167C00614B1B78012B05D000224FF480715F4821
:10168C0003F067FF5B4B1B68002B08D15A4B1B7890
:10169C00022B04D101220221594803F05AFF554B69
:1016AC001B68002B08D1544B1B78022B04D0002252
:1016BC000221534803F04DFF524B1B8840F6C312D6
:1016CC00934220D94A4B1B88042B0BD801224FF490
:1016DC0080514A4803F03DFF00224FF40071474807
:1016EC0003F037FF424B1B88042B18D900224FF410
:1016FC008051424803F02DFF01224FF400713F4806
:10170C0003F027FF0BE000224FF480513B4803F01D
:10171C0020FF00224FF40071384803F01AFF334BBE
:10172C001B88092B1AD8344B1B78012B09D1314B50
:10173C001B68002B05D001224FF480712F4803F059
:10174C0008FF2D4B1B78022B08D12A4B1B68002B52
:10175C0004D0012202212A4803F0FBFE234B1B88F4
:10176C00092B1AD9244B1B78012B09D1214B1B684F
:10177C00002B05D000224FF48071204803F0E9FEC5
:10178C001D4B1B78022B08D11A4B1B68002B04D065
:10179C00002202211A4803F0DCFE1B4B1B78122B93
:1017AC0003D0194B1B78132B05D101222021134890
:1017BC0003F0CFFE04E000222021104803F0C9FE04
:1017CC00124B1B78002B09D10B4B1B78022B05D12C
:1017DC0001221021094803F0BCFE04E00022102174
:1017EC00064803F0B6FE00BF80BD00BF20050020F8
:1017FC00220500204C05002049050020000C01406A
:10180C0000080140E40700202E0500202C050020D4
:10181C0080B400AF1F4B1B884FF6FF72934204D06D
:10182C001D4B1A781D4B1A7002E01C4B01221A70CA
:10183C001B4B1B884FF6FF72934205D0194BB3F923
:10184C000020194B1A8002E0174B00221A80174B0C
:10185C001B884FF6FF72934205D0154BB3F900204D
:10186C00144B1A8002E0134B00221A80124B1B8877
:10187C004FF6FF72934205D0104BB3F90020104B7A
:10188C001A8003E00E4B00221A8000BFBD4680BCBC
:10189C00704700BF00FC0108B00800202E05002096
:1018AC0002FC0108B20800203405002004FC0108E9
:1018BC00B40800203605002006FC0108B6080020FC
:1018CC003805002080B500AF934B00221A804FF4EE
:1018DC008061924803F026FE03461A46904B1A701C
:1018EC004FF400618D4803F01DFE03461A468D4BE4
:1018FC001A704FF48051894803F014FE03461A46BF
:10190C00894B1A701021854803F00CFE03461A46C9
:10191C00864B1A704FF48041854803F003FE034652
:10192C001A46844B1A704FF400717C4803F0FAFD90
:10193C0003461A46804B1A70794B1B78012B07D043
:10194C00784B1B78012B03D0774B1B78012B06D1DE
:10195C0001224FF40051764803F0FBFD05E0002214
:10196C004FF40051724803F0F4FD6D4B1B78012BC2
:10197C0014D1724B1B78002B10D1714B1B88013387
:10198C009AB26F4B1A806E4B1B88632B09D96C4B28
:10199C0000221A80694B01221A7002E0684B002267
:1019AC001A80614B1B78012B17D1644B1B78032BCE
:1019BC0013D1644B1B8801339AB2624B1A80614B72
:1019CC001B88632B0CD95F4B00221A805B4B0022C7
:1019DC001A705D4B00221A7002E05A4B00221A80DA
:1019EC005A4B1B78122B49D0584B1B78132B45D0D4
:1019FC00514B1B78012B03D1554B1B78002B0BD073
:101A0C004D4B1B78012B10D1484B1B78002B0CD164
:101A1C00504B1B78012B08D14F4B01221A704F4BA6
:101A2C0000221A804E4B01221A70434B1B78002B5C
:101A3C0003D1474B1B78012B0BD03F4B1B78012B51
:101A4C0010D13A4B1B78012B0CD1424B1B78002B3D
:101A5C0008D1414B01221A70404B00221A80404B96
:101A6C0000221A70344B1A78394B1A703C4B1A7886
:101A7C003C4B1A702D4B1A78364B1A702F4B1B7827
:101A8C00022B40F00081304B1B78002B74D1244B7F
:101A9C001B78012B16D1344B1B78002B12D1334BF6
:101AAC00B3F900309BB2013B9BB21AB22F4B1A8098
:101ABC002E4BB3F90030002B80F2E5802B4B6422C7
:101ACC001A80E0E0174B1B78012B16D1284B1B78A2
:101ADC00002B12D1254BB3F900309BB201339BB2D2
:101AEC001AB2224B1A80214BB3F90030642B40F30D
:101AFC00CA801E4B00221A80C5E00B4B1B78012BB1
:101B0C0040F0C1801B4B1B78002B40F0BC800E4B6F
:101B1C0001221A70B7E000BF3C050020000801400C
:101B2C00240500202505002026050020270500207F
:101B3C00000C01402C0500202F0500202D05002055
:101B4C003A0500203E050020330500202E0500201C
:101B5C00300500202B0500204805002054050020EE
:101B6C003105002032050020280500203405002016
:101B7C00290500202A0500206F4B1B78012B3FD133
:101B8C006E4B1B78012B15D16D4B1B78002B11D193
:101B9C006C4BB3F900309BB2013B9BB21AB2694B50
:101BAC001A80684BB3F90030002B6CDA654B3C2281
:101BBC001A8068E0644B1B78012B15D1634B1B78A2
:101BCC00002B11D15F4BB3F900309BB201339BB2A8
:101BDC001AB25C4B1A805B4BB3F900303C2B52DDD4
:101BEC00584B00221A804EE0594B1B78012B4AD1DE
:101BFC00584B1B78002B46D14F4B02221A7042E0F7
:101C0C004D4B1B78022B3ED14C4B1B78012B15D125
:101C1C004B4B1B78002B11D14F4BB3F900309BB2BF
:101C2C00013B9BB21AB24C4B1A804B4BB3F90030B0
:101C3C00002B28DA484B3C221A8024E0424B1B78BC
:101C4C00012B15D1414B1B78002B11D1424BB3F911
:101C5C0000309BB201339BB21AB23F4B1A803E4B01
:101C6C00B3F900303C2B0EDD3B4B00221A800AE00E
:101C7C00374B1B78012B06D1364B1B78002B02D12E
:101C8C00364B03221A70354B1B78012B46D12B4B4C
:101C9C001B78012B11D12A4B1B78002B0DD1304B0B
:101CAC001B78013BDAB22E4B1A702D4B1B78002B94
:101CBC0034D12B4B13221A7030E0234B1B78012BA1
:101CCC0011D1224B1B78002B0DD1254B1B780133E6
:101CDC00DAB2234B1A70224B1B78132B1ED9204BD4
:101CEC0001221A701AE01A4B1B78012B0BD1194BDD
:101CFC001B78002B07D11A4B1B78112B03D1174BD8
:101D0C0002221A700AE0124B1B78012B06D1114BE0
:101D1C001B78002B02D1114B03221A70074B1A7837
:101D2C00074B1A70084B1A78084B1A70084B1A7824
:101D3C00084B1A7000BF80BD33050020240500201D
:101D4C002805002036050020250500202905002047
:101D5C00260500202A050020380500202D0500202E
:101D6C002E05002080B500AF414B1B78032B03D10F
:101D7C00404B1B78012B0BD03D4B1B78032B10D108
:101D8C003D4B1B78122B03D03B4B1B78132B08D1EC
:101D9C003A4B1B78012B01D100F088F800F0B0F918
:101DAC0020E0364B01221A70354B00221A80354B3D
:101DBC0000221A60344B00221A80344B00221A8005
:101DCC00334B00221A80334B00221A80002000F083
:101DDC0091FA002000F09EFA002000F0BBFA2E4B86
:101DEC0000221A702D4B1B78012B19D12C4B1B7810
:101DFC00012B15D12B4B7F221A802B4B1B880133C7
:101E0C009AB2294B1A80284B1B88132B08D9264BC6
:101E1C0014221A80224B00221A70224B00221A80A4
:101E2C001E4B1B78002B19D11D4B1B78012B15D188
:101E3C001C4B20221A801C4B1B8801339AB21A4B64
:101E4C001A80194B1B88132B08D9174B14221A8094
:101E5C00134B00221A70134B00221A80114BB3F94A
:101E6C0000309BB2184600F065FA00BF80BD00BF81
:101E7C002D0500202F0500202E05002052050020E6
:101E8C004A0500204C05002050050020400500208C
:101E9C0042050020460500204905002031050020A0
:101EAC0048050020440500205405002080B400AFF4
:101EBC008B4B1B78013B122B00F2048101A252F8D0
:101ECC0023F000BF1D1F0008331F0008491F000826
:101EDC005F1F0008751F00088B1F0008A11F00085A
:101EEC00B71F0008CD1F0008E31F0008F91F0008EA
:101EFC000F20000825200008392000084F2000087A
:101F0C00652000087B200008A5200008BB200008E5
:101F1C00744B5A221A80744B4EF660221A60734B23
:101F2C0041221A80D8E06F4B5A221A806E4B41F234
:101F3C0070721A606D4B41221A80CDE0694B5A22A7
:101F4C001A80694B41F270721A60684B05221A8034
:101F5C00C2E0644B41221A80634B41F270721A60EA
:101F6C00624B41221A80B7E05E4B05221A805E4B11
:101F7C0041F270721A605D4B05221A80ACE0594B2D
:101F8C005A221A80584B41F270721A60574B4122F8
:101F9C001A80A1E0534B28221A80534B44F2506212
:101FAC001A60524B05221A8096E04E4B5A221A8028
:101FBC004D4B44F250621A604C4B41221A808BE01C
:101FCC00484B5A221A80484B4EF660221A60474BF7
:101FDC0041221A8080E0434B5A221A80424B42F62F
:101FEC00E0621A60414B41221A8075E03D4B5A2247
:101FFC001A803D4B47F230521A603C4B41221A80FA
:10200C006AE0384B5A221A80374B41F270721A60D0
:10201C00364B41221A805FE0324B50221A80324BF1
:10202C00334A1A60314B41221A8055E02D4B5A220B
:10203C001A802D4B42F6E0621A602C4B41221A801A
:10204C004AE0284B5A221A80274B47F230521A602A
:10205C00264B41221A803FE0224B5A221A80224BF7
:10206C0042F6E0621A60214B28221A8034E0214BA0
:10207C00B3F900201B4B1A801F4BB3F900301A46E2
:10208C0041F2707302FB03F3174A13601B4BB3F955
:10209C000020164B1A801FE0124B05221A80124B9F
:1020AC0041F270721A60114B05221A8014E00D4B2C
:1020BC003C221A800C4B41F270721A600B4B3C2282
:1020CC001A8009E0074B00221A80074B00221A6085
:1020DC00064B00221A8000BF00BFBD4680BC704773
:1020EC002E0500204A0500204C050020500500203C
:1020FC00C0D401003405002036050020380500202E
:10210C0080B582B000AF714B1B78012B05D1704BA1
:10211C0000221A706D4B00221A706E4B1B88BB800C
:10212C006D4B1B68002B12DD6C4BB3F900301A1F82
:10213C00B7F904309A420ADC684BB3F900301A1D27
:10214C00B7F904309A4202DB614B01221A70634BDF
:10215C001B88FB805E4B1B78012B0ED15E4B1B68E2
:10216C00013B5D4A13605C4B1B68002B05DC5A4B32
:10217C0000221A60564B02221A70554B1B78022B08
:10218C0002D1574B1B88FB80B7F90620B7F90430F6
:10219C00D31A002B15DD534BB3F900309BB201332E
:1021AC009BB21AB24F4B1A804F4BB3F900309BB213
:1021BC00013B9BB21AB24C4B1A804C4B02221A7048
:1021CC0014E0484BB3F900309BB2013B9BB21AB2FE
:1021DC00444B1A80444BB3F900309BB201339BB291
:1021EC001AB2414B1A80414B01221A70B7F90620E2
:1021FC00B7F90430D31A002B09DD3D4BB3F900308D
:10220C009BB2013B9BB21AB2394B1A800FE0B7F963
:10221C000620B7F90430D31A002B08DA344BB3F983
:10222C0000309BB201339BB21AB2314B1A802D4B4A
:10223C00B3F90030B3F57A7F03DB2A4B4FF47A7293
:10224C001A80284BB3F90030002B02DC254B0022FE
:10225C001A80254BB3F90030B3F57A7F03DB224BA0
:10226C004FF47A721A80204BB3F90030002B02DC49
:10227C001D4B00221A801E4BB3F90030B3F57A7F48
:10228C0003DB1B4B4FF47A721A80194BB3F90030F5
:10229C00002B02DC164B00221A80124BB3F90030D3
:1022AC009BB2184600F036F80F4BB3F900309BB2D6
:1022BC00184600F01FF80E4BB3F900309BB21846CD
:1022CC0000F048F800BF0837BD4680BD520500201D
:1022DC00560500206C0500204C0500204A05002006
:1022EC005005002042050020400500204905002033
:1022FC004605002080B483B000AF0346FB80044A3F
:10230C00FB88936300BF0C37BD4680BC704700BF91
:10231C000004004080B483B000AF0346FB80044A45
:10232C00FB88536300BF0C37BD4680BC704700BFB1
:10233C000004004080B483B000AF0346FB80044A25
:10234C00FB88D36300BF0C37BD4680BC704700BF11
:10235C00002C014080B483B000AF0346FB80044ADC
:10236C00FB88536300BF0C37BD4680BC704700BF71
:10237C00002C014080B500AF604801F009FE0A2135
:10238C005E4801F0B3FE0346002B0AD15B4801F016
:10239C00B3FF03469AB25A4B1A805A4B01221A7059
:1023AC0002E0584B00221A70544801F0F1FD0A214A
:1023BC00524801F09BFE0346002B0AD14F4801F016
:1023CC009BFF03469AB2504B1A80504B01221A7055
:1023DC0002E04E4B00221A704A4B1B78012B37D16E
:1023EC004B4B1B780133DAB2494B1A70444B1B88A8
:1023FC001A46484B1B681344464A1360444B1B78DF
:10240C00092B25D9434B1B68414A1278B3FBF2F3D5
:10241C001846FDF753FF03463F491846FDF7A6FF44
:10242C0003463E491846FEF755F803461846FEF794
:10243C0013F903469AB23A4B1A80394B1B8818464B
:10244C0000F080F8324B00221A70324B00221A60D6
:10245C002E4B1B78012B4FD1324B1B780133DAB248
:10246C00304B1A70284B1B881A462F4B1B68134491
:10247C002D4A13602B4B1B78092B3DD92A4B1B681B
:10248C00284A1278B3FBF2F31846FDF717FF034600
:10249C0026491846FDF76AFF034620491846FEF701
:1024AC0019F803461846FEF7D7F803469AB2204BA4
:1024BC001A801F4B1B881846FDF700FF03461D4969
:1024CC001846FDF749FE03461B491846FEF702F86D
:1024DC0003461A491846FDF741FE03461846FEF717
:1024EC0095F803461AB2164B1A800E4B00221A703E
:1024FC000D4B00221A6000BF00BF80BD9C00002065
:10250C00580500205C0500205A0500205D050020C0
:10251C00000000206005002000409C4500F07F4535
:10252C0068050020010000206405002000404E4595
:10253C006A05002000003E44000020400000C84115
:10254C006E05002080B485B000AF0346FB800023ED
:10255C00FB81FB8840F22A72934203D94FF6F57344
:10256C00FB81AAE3FB8840F22672934203D94FF613
:10257C00F673FB81A1E3FB8840F22272934203D9EC
:10258C004FF6F773FB8198E3FB8840F21E7293427F
:10259C0003D94FF6F873FB818FE3FB8840F21A7274
:1025AC00934203D94FF6F973FB8186E3FB8840F223
:1025BC001672934203D94FF6FA73FB817DE3FB88C5
:1025CC0040F21272934203D94FF6FB73FB8174E312
:1025DC00FB8840F20E72934203D94FF6FC73FB81D9
:1025EC006BE3FB8840F20A72934203D94FF6FD73FA
:1025FC00FB8162E3FB8840F20672934203D94FF6EB
:10260C00FE73FB8159E3FB8840F20272934203D9BB
:10261C004FF6FF73FB8150E3FB8840F2FD6293425F
:10262C0002D90023FB8148E3FB8840F2F962934214
:10263C0002D90123FB8140E3FB8840F2F56293420F
:10264C0002D90223FB8138E3FB8840F2F16293420A
:10265C0002D90323FB8130E3FB8840F2ED62934205
:10266C0002D90423FB8128E3FB8840F2E962934200
:10267C0002D90523FB8120E3FB8840F2E5629342FB
:10268C0002D90623FB8118E3FB8840F2E1629342F6
:10269C0002D90723FB8110E3FB8840F2DD629342F1
:1026AC0002D90823FB8108E3FB8840F2D9629342EC
:1026BC0002D90923FB8100E3FB8840F2D3629342E9
:1026CC0002D90A23FB81F8E2FB8840F2CD629342E7
:1026DC0002D90B23FB81F0E2FB8840F2C6629342E5
:1026EC0002D90C23FB81E8E2FB88B3F5D86F02D941
:1026FC000D23FB81E1E2FB8840F2BA62934202D9DE
:10270C000E23FB81D9E2FB8840F2B262934202D9DC
:10271C000F23FB81D1E2FB8840F2AD62934202D9D8
:10272C001023FB81C9E2FB88B3F5D56F02D31123CB
:10273C00FB81C2E2FB8840F2A162934202D91223D0
:10274C00FB81BAE2FB8840F29B62934202D91323CD
:10275C00FB81B2E2FB8840F29362934202D91423CC
:10276C00FB81AAE2FB8840F28C62934202D91523CA
:10277C00FB81A2E2FB8840F28562934202D91623C8
:10278C00FB819AE2FB8840F27E62934202D91723C6
:10279C00FB8192E2FB88B3F5CF6F02D31823FB8148
:1027AC008BE2FB88B3F5CE6F02D91923FB8184E24F
:1027BC00FB8840F26962934202D91A23FB817CE2C6
:1027CC00FB8840F26262934202D91B23FB8174E2C4
:1027DC00FB8840F25B62934202D91C23FB816CE2C2
:1027EC00FB8840F25462934202D91D23FB8164E2C0
:1027FC00FB8840F24C62934202D91E23FB815CE2BF
:10280C00FB8840F24362934202D91F23FB8154E2BE
:10281C00FB8840F23B62934202D92023FB814CE2BD
:10282C00FB8840F23262934202D92123FB8144E2BD
:10283C00FB8840F22A62934202D92223FB813CE2BC
:10284C00FB8840F22262934202D92323FB8134E2BB
:10285C00FB8840F21962934202D92423FB812CE2BB
:10286C00FB8840F21162934202D92523FB8124E2BA
:10287C00FB88B3F5C16F02D92623FB811DE2FB88CF
:10288C00B3F5C06F02D92723FB8116E2FB8840F217
:10289C00F652934202D92823FB810EE2FB8840F2C8
:1028AC00EC52934202D92923FB8106E2FB8840F2C9
:1028BC00E252934202D92A23FB81FEE1FB88B3F555
:1028CC00BB6F02D92B23FB81F7E1FB8840F2CE5280
:1028DC00934202D92C23FB81EFE1FB8840F2C452D6
:1028EC00934202D92D23FB81E7E1FB8840F2BA52D7
:1028FC00934202D92E23FB81DFE1FB88B3F5B66F3F
:10290C0002D92F23FB81D8E1FB8840F2A6529342D7
:10291C0002D93023FB81D0E1FB8840F29C529342D8
:10292C0002D93123FB81C8E1FB88B3F5B26F02D326
:10293C003223FB81C1E1FB8840F28252934202D9DF
:10294C003323FB81B9E1FB8840F27552934202D9E3
:10295C003423FB81B1E1FB88B3F5AD6F02D935238C
:10296C00FB81AAE1FB8840F25B52934202D93623E9
:10297C00FB81A2E1FB8840F24E52934202D93723ED
:10298C00FB819AE1FB8840F24152934202D93823F1
:10299C00FB8192E1FB8840F23452934202D93923F5
:1029AC00FB818AE1FB88B3F5A56F02D33A23FB8147
:1029BC0083E1FB8840F21A52934202D93B23FB81FC
:1029CC007BE1FB8840F20D52934202D93C23FB8100
:1029DC0073E1FB88B3F5A06F02D93D23FB816CE159
:1029EC00FB8840F2F442934202D93E23FB8164E11E
:1029FC00FB88B3F59D6F02D33F23FB815DE1FB8820
:102A0C0040F2DA42934202D94023FB8155E1FB8824
:102A1C0040F2CD42934202D94123FB814DE1FB8828
:102A2C00B3F5986F02D94223FB8146E1FB8840F253
:102A3C00B442934202D94323FB813EE1FB88B3F5B8
:102A4C00956F02D34423FB8137E1FB8840F29A4215
:102A5C00934202D94523FB812FE1FB8840F28D4242
:102A6C00934202D94623FB8127E1FB88B3F5906F93
:102A7C0002D34723FB8120E1FB8840F27242934250
:102A8C0002D94823FB8118E1FB8840F2644293424F
:102A9C0002D94923FB8110E1FB88B3F58B6F02D37C
:102AAC004A23FB8109E1FB8840F24A42934202D956
:102ABC004B23FB8101E1FB8840F23C42934202D95B
:102ACC004C23FB81F9E0FB88B3F5866F02D34D23D1
:102ADC00FB81F2E0FB8840F22142934202D94E2363
:102AEC00FB81EAE0FB8840F21442934202D94F2367
:102AFC00FB81E2E0FB88B3F5816F02D35023FB81AD
:102B0C00DBE0FB8840F2FA32934202D95123FB817D
:102B1C00D3E0FB88B3F57B7F02D95223FB81CCE059
:102B2C00FB88B3F5787F02D35323FB81C5E0FB8888
:102B3C0040F2D232934202D95423FB81BDE0FB8890
:102B4C0040F2C532934202D95523FB81B5E0FB8894
:102B5C00B3F56E7F02D35623FB81AEE0FB8840F2C7
:102B6C00AA32934202D95723FB81A6E0FB8840F29C
:102B7C009D32934202D95823FB819EE0FB88B3F52A
:102B8C00647F02D95923FB8197E0FB8840F28232A3
:102B9C00934202D95A23FB818FE0FB8840F27532B5
:102BAC00934202D95B23FB8187E0FB88B3F55A7F04
:102BBC0002D95C23FB8180E0FB88B3F5577F02D3FD
:102BCC005D23FB8179E0FB8840F24D32934202D9C0
:102BDC005E23FB8171E0FB88B3F5507F02D95F2344
:102BEC00FB816AE0FB88B3F54D7F02D36023FB8148
:102BFC0063E0FB8840F22632934202D96123FB81C9
:102C0C005BE0FB88B3F5467F02D96223FB8154E07D
:102C1C00FB88B3F5437F02D36323FB814DE0FB8834
:102C2C0040F2FE22934202D96423FB8145E0FB88EB
:102C3C0040F2F122934202D96523FB813DE0FB88EF
:102C4C00B3F5397F02D36623FB8136E0FB8840F273
:102C5C00D622934202D96723FB812EE0FB8840F2F7
:102C6C00C922934202D96823FB8126E0FB88B3F585
:102C7C002F7F02D96923FB811FE0FB8840F2AE2233
:102C8C00934202D96A23FB8117E0FB8840F2A12210
:102C9C00934202D96B23FB810FE0FB88B3F5257FB0
:102CAC0002D96C23FB8108E0FB88B3F5227F02D3A9
:102CBC006D23FB8101E06E23FB81044AFB891380A9
:102CCC0000BF1437BD4680BC704700BF6C050020A8
:102CDC0080B582B000AFAE2000F0C0FDA82000F09F
:102CEC00BDFD1F2000F0BAFDD32000F0B7FD002081
:102CFC0000F0B4FD402000F0B1FDA12000F0AEFDCD
:102D0C00C82000F0ABFD812000F0A8FD7F2000F072
:102D1C00A5FDA42000F0A2FDA62000F09FFDD5206B
:102D2C0000F09CFD802000F099FD8D2000F096FDB8
:102D3C00142000F093FD2E2000F090FD202000F0D8
:102D4C008DFD102000F08AFDDA2000F087FD0220B6
:102D5C0000F084FDD92000F081FD222000F07EFDE2
:102D6C00DB2000F07BFD202000F078FDB02000F08F
:102D7C0075FD002000F072FD102000F06FFDAF20FB
:102D8C0000F06CFD002000F083FD00F099FD00F0D8
:102D9C003BF80A490A4806F0F5F90948FDF7D0F95D
:102DAC000346FB71FB79064A2021D15400F046F80A
:102DBC0000F086FD00BF0837BD4680BDB89A0008FC
:102DCC007405002080B582B000AF0023FB800D4B52
:102DDC001B78032B02D100F083F80FE0094B1B7812
:102DEC00012B02D100F0B4FA08E0064B1B78022B41
:102DFC0002D100F007FB01E000F0C0FC00BF083777
:102E0C00BD4680BD2D05002080B483B000AF0023EB
:102E1C007B6007E0084A7B68134420221A707B68A9
:102E2C0001337B607B68632BF4DD00BF00BF0C3784
:102E3C00BD4680BC704700BF7405002080B582B0D1
:102E4C0000AF0023FB713EE0FB795A1C1346DB00FC
:102E5C009B1A7F2B0ADCFB799BB21A46D200D31A41
:102E6C009BB20021184600F05DFD1DE0FB795A1C59
:102E7C001346DB009B1AFF2B0BDCFB79123B9BB23E
:102E8C001A46D200D31A9BB20A21184600F04AFD0A
:102E9C000AE0FB79243B9BB21A46D200D31A9BB2B0
:102EAC001421184600F03EFDFB790B4AD35C203B05
:102EBC00DBB201220949184600F04AFD0346BB71FA
:102ECC00FB790133FB71FB79442BBDD900BF00BFEB
:102EDC000837BD4680BD00BF7405002004000020EB
:102EEC0080B584B000AF0023FB81FFF78DFFB149A3
:102EFC00B14806F047F9B048FDF722F90346BB810B
:102F0C00AE4B1B88AE4AA2FB03235B099AB2AD4BB6
:102F1C00A3FB021359090B461B015B1A9B00D31A26
:102F2C009AB2A94BA3FB0213D9080B469B000B4486
:102F3C005B00D31A9BB27B72A04B1B88A04AA2FBEE
:102F4C0003235B099AB29F4BA3FB021359090B464F
:102F5C001B015B1A9B00D31A9BB29B4AA2FB032357
:102F6C00DB089AB2984BA3FB0213D9080B469B00C3
:102F7C000B445B00D31A9BB23B72904B1B88934A59
:102F8C00A2FB0323DB099AB28F4BA3FB0213D908D4
:102F9C000B469B000B445B00D31A9BB2FB71874B17
:102FAC001B888B4AA2FB03239B0B9AB2864BA3FB79
:102FBC000213D9080B469B000B445B00D31A9BB23F
:102FCC00BB71BB89BA793032D1B27B4AD154BB893F
:102FDC000133FA793032D1B2774AD154BB890233FA
:102FEC00754A3A21D154BB8903333A7A3032D1B283
:102FFC00714AD154BB8904337A7A3032D1B26E4AD9
:10300C00D154BB890733BB81BB896B4A13447149CB
:10301C00184606F0B7F8BB890833BB816E4B1B888A
:10302C007B81B7F90A30002B06DA7B895B429BB2B5
:10303C007B812D23FB8101E02023FB81B7F90A2042
:10304C00664B83FB02139910D317C91A0B469B00CE
:10305C000B445B00D31A1BB27B71B7F90A30584A88
:10306C0082FB03125111DA178A1A642101FB02F256
:10307C009B1A1BB2594A82FB03129210DB17D31A0C
:10308C001BB23B71B7F90A30554A82FB03129111FE
:10309C00DA178A1A4FF47A7101FB02F29B1A1BB2EF
:1030AC00474A82FB03125211DB17D31A1BB2FB7077
:1030BC00BB890233FA89D1B23F4AD154FB78002B39
:1030CC0013D1BB8903333C4A2021D154BB8904332F
:1030DC003A793032D1B2384AD154BB8905337A7936
:1030EC003032D1B2344AD15414E0BB890333FA786C
:1030FC003032D1B2304AD154BB8904333A793032B0
:10310C00D1B22D4AD154BB8905337A793032D1B240
:10311C00294AD154BB890633274A134431491846EE
:10312C0006F030F82448FDF70BF80346BB81BB8949
:10313C00214A2021D154BB890233BB81BB891E4A51
:10314C0013442949184606F01DF8BB890533BB8189
:10315C00BB89194A2021D154244B1A781A4BA3FB52
:10316C000213D9080B469B000B445B00D31A7B71EE
:10317C001E4B1B78124AA2FB03125209642101FB5D
:10318C0002F29B1ADBB2104AA2FB0323DB083B7151
:10319C003B79002B2CD0BB893A793032D1B2064A1C
:1031AC00D154BB8901337A793032D1B2024AD1542D
:1031BC0027E000BFD49A0008740500204C050020BD
:1031CC001F85EB5189888888CDCCCCCCF11976053C
:1031DC0073B2E745E09A00086C05002067666666E6
:1031EC00D34D6210EC9A0008F09A00082E050020CE
:1031FC00BB890133BB81BB897A793032D1B24D4A5C
:10320C00D154BB890233BB81BB894A4A2021D1549A
:10321C00BB890133BB81BB89464A134446491846D6
:10322C0005F0B0FF4348FCF78BFF0346BB81BB891D
:10323C00404A2021D154414B1A88414BA3FB021325
:10324C00D9080B469B000B445B00D31A9BB27B71D5
:10325C003A4B1B883B4AA2FB03125209642101FB27
:10326C0002F29B1A9BB2364AA2FB0323DB089BB2E9
:10327C003B71324B1B88344AA2FB031292094FF468
:10328C007A7101FB02F29B1A9BB22E4AA2FB03231A
:10329C005B099BB2FB70294B1B882C4AA2FB0312C7
:1032AC00520B42F2107101FB02F29B1A9BB2264A9E
:1032BC00A2FB03239B099BB2BB70BB78002B1BD0DA
:1032CC00BB89BA783032D1B21A4AD154BB89013396
:1032DC00FA783032D1B2174AD154BB8902333A79D9
:1032EC003032D1B2134AD154BB8903337A7930329C
:1032FC00D1B2104AD15414E0BB890133FA78303280
:10330C00D1B20C4AD154BB8902333A793032D1B2A2
:10331C00084AD154BB8903337A793032D1B2054A89
:10332C00D154FFF78BFD00F0CBFA00BF1037BD4630
:10333C0080BD00BF74050020F89A0008E407002047
:10334C00CDCCCCCC1F85EB51D34D62105917B7D1D6
:10335C0080B582B000AFFFF757FD2549254805F031
:10336C0011FF2448FCF7ECFE0346FB80FB88214A46
:10337C002021D154FB880933FB801F4B1A781F4B3B
:10338C00A3FB0213D9080B469B000B445B00D31A1A
:10339C007B71194B1B781A4AA2FB03125209642148
:1033AC0001FB02F29B1ADBB2144AA2FB0323DB08DB
:1033BC003B71FB880F4A5B21D154FB8801333A796E
:1033CC003032D1B20B4AD154FB8802337A79303285
:1033DC00D1B2084AD154FB880333064A5D21D1543B
:1033EC00FFF72CFD00F06CFA00BF0837BD4680BD1E
:1033FC00009B0008740500202E050020CDCCCCCC01
:10340C001F85EB5180B582B000AFFFF7FDFCB34BCD
:10341C001B78002B40F09180B149B24805F0B2FE08
:10342C00B048FCF78DFE0346FB80FB88AD4A20219B
:10343C00D154FB880533FB80AB4BB3F90020AB4B6D
:10344C0083FB02139910D317C91A0B469B000B442C
:10345C005B00D31A1BB27B71A34BB3F90030A44AA7
:10346C0082FB03125111DA178A1A642101FB02F252
:10347C009B1A1BB29D4A82FB03129210DB17D31AC4
:10348C001BB23B71984BB3F900309A4A82FB031282
:10349C009111DA178A1A4FF47A7101FB02F29B1A16
:1034AC001BB2934A82FB03125211DB17D31A1BB2C5
:1034BC00FB70FB78002B15D0FB880133FA78303287
:1034CC00D1B2884AD154FB8802333A793032D1B226
:1034DC00844AD154FB8803337A793032D1B2814A91
:1034EC00D15418E03B79002B0ED0FB8802333A798B
:1034FC003032D1B27B4AD154FB8803337A793032E3
:10350C00D1B2784AD15406E0FB8803337A79303251
:10351C00D1B2744AD154FB880433724A13447649AD
:10352C00184605F02FFE6F48FCF70AFE0346FB8099
:10353C00FB886C4A2021D15414E1684B1B78012B79
:10354C0060D16E49674805F01DFE6648FCF7F8FD32
:10355C000346FB80FB88634A2021D154FB8805334A
:10356C00FB80674BB3F90020604B83FB021399106F
:10357C00D317C91A0B469B000B445B00D31A1BB222
:10358C007B715F4BB3F90030594A82FB0312511126
:10359C00DA178A1A642101FB02F29B1A1BB2534AF6
:1035AC0082FB03129210DB17D31A1BB23B713B79CF
:1035BC00002B0ED0FB8802333A793032D1B2494A13
:1035CC00D154FB8803337A793032D1B2454AD15485
:1035DC0006E0FB8803337A793032D1B2414AD154B8
:1035EC00FB8804333F4A13444649184605F0CAFD8C
:1035FC003C48FCF7A5FD0346FB80FB88394A20219B
:10360C00D154AFE0354B1B78022B40F0AB803E49D8
:10361C00344805F0B7FD3348FCF792FD0346FB80B8
:10362C00FB88304A2021D154FB880633FB80374B72
:10363C00B3F900202D4B83FB02139910D317C91A31
:10364C000B469B000B445B00D31A1BB27B712F4BB8
:10365C00B3F90030264A82FB03125111DA178A1A89
:10366C00642101FB02F29B1A1BB2204A82FB03125B
:10367C009210DB17D31A1BB23B71244BB3F90030F9
:10368C001C4A82FB03129111DA178A1A4FF47A71D1
:10369C0001FB02F29B1A1BB2154A82FB0312521158
:1036AC00DB17D31A1BB2FB70FB78002B30D0FB88D6
:1036BC000133FA783032D1B20A4AD154FB88023342
:1036CC003A793032D1B2074AD154FB8803337A7934
:1036DC003032D1B2034AD15433E000BF330500205D
:1036EC00149B00087405002034050020676666668C
:1036FC001F85EB51D34D6210289B0008309B0008AE
:10370C0036050020449B00084C9B0008380500201F
:10371C003B79002B0ED0FB8802333A793032D1B290
:10372C00144AD154FB8803337A793032D1B2114A1E
:10373C00D15406E0FB8803337A793032D1B20D4A8A
:10374C00D154FB8804330B4A13440B49184605F03B
:10375C0019FD0848FCF7F4FC0346FB80FB88054A7E
:10376C002021D154FFF76AFB00F0AAF800BF0837FC
:10377C00BD4680BD74050020289B000880B582B032
:10378C0000AFFFF741FB2F492F4805F0FBFC2E48FB
:10379C00FCF7D6FC0346FB80FB882B4A2021D15436
:1037AC00FB880533FB80FB88274A134427491846BE
:1037BC0005F0E8FC2448FCF7C3FC0346FB80FB88BF
:1037CC00214A2021D154224B1A78224BA3FB0213FD
:1037DC00D9080B469B000B445B00D31A7B711C4B26
:1037EC001B781D4AA2FB03125209642101FB02F251
:1037FC009B1ADBB2174AA2FB0323DB083B713B7914
:10380C00002B0DD0FB883A793032D1B20E4AD1540C
:10381C00FB8801337A793032D1B20B4AD15408E0AB
:10382C00FB880133FB80FB887A793032D1B2064AAF
:10383C00D154FFF703FB00F043F800BF0837BD4637
:10384C0080BD00BF609B000874050020749B0008BD
:10385C002E050020CDCCCCCC1F85EB5180B586B08D
:10386C0002AF0346FB7100233B73FB797B7307F1BB
:10387C000C024FF47A73009302237821034802F070
:10388C008DFB00BF1037BD4680BD00BFCC000020B3
:10389C0080B582B000AF0346FB71FB79002B01D1E0
:1038AC00002300E0FF234FF400721946034805F093
:1038BC0061FC00BF0837BD4680BD00BFD8050020A5
:1038CC0080B586B004AF0023FB711EE0FB79503B42
:1038DC00DBB21846FFF7C2FF0020FFF7BFFF102036
:1038EC00FFF7BCFFFB79DB010C4A13444FF47A72EF
:1038FC0002928022019200930123402278210848F1
:10390C0002F04AFCFB790133FB71FB79072BDDD903
:10391C0000BF00BF0837BD4680BD00BFD8050020E2
:10392C00CC00002080B483B000AF03460A46FB8075
:10393C001346BB80054AFB881380044ABB8853801E
:10394C0000BF0C37BD4680BC704700BF700500201F
:10395C0080B586B000AF03463960FB711346BB716E
:10396C00394B1B881A463B681B7813447F2B07DCAA
:10397C00354B5B881A463B685B7813441F2B01DD83
:10398C0000235DE000237B614AE03B685A68FB79C9
:10399C003968497801FB03F319467B690B445B00DA
:1039AC0013441B88FB6000233B6130E0FA683B69E1
:1039BC0002FA03F303F40043002B10D0224B1A88B5
:1039CC003B699BB2134498B21F4B5A887B699BB2DC
:1039DC0013449BB2BA79194600F038F814E01A4B2C
:1039EC001A883B699BB2134498B2174B5A887B696F
:1039FC009BB2134499B2BB79002B0CBF012300235B
:103A0C00DBB21A4600F022F83B6901333B613B689C
:103A1C001B781A463B699342C8D37B6901337B619F
:103A2C003B685B781A467B699342AED3064B1A8887
:103A3C003B681B789BB213449AB2034B1A80FB79F8
:103A4C0018461837BD4680BD7005002080B483B081
:103A5C0000AF0346FB800B46BB801346FB70FB8814
:103A6C007F2B3DD8BB881F2B3AD8FB78012B1AD162
:103A7C00FA88BB88DB0898B20346DB0113441B4A67
:103A8C00D35C5AB2BB8803F00703012101FA03F39C
:103A9C005BB2134359B2FA880346DB011344C9B233
:103AAC00124AD1541DE0FA88BB88DB0898B2034651
:103ABC00DB0113440D4AD35C5AB2BB8803F00703F5
:103ACC00012101FA03F35BB2DB435BB2134059B241
:103ADC00FA880346DB011344C9B2044AD15400E00E
:103AEC0000BF0C37BD4680BC704700BFD805002016
:103AFC0080B584B004AF0F4BF4221A704FF47A7374
:103B0C00009301230B4AB4210B4802F047FA094BEE
:103B1C0010221A704FF47A73029301230193054B10
:103B2C00009301230122B421034802F035FB00BFAE
:103B3C00BD4680BDD80700202001002080B500AF15
:103B4C0000F002F800BF80BD80B584B004AF6423E0
:103B5C00029308230193114B009301230222B421F9
:103B6C000F4802F013FC0D4B1B781B021AB20B4BC7
:103B7C005B781BB213431BB29AB20A4B1A80074BE9
:103B8C009B781B021AB2054BDB781BB213431BB29A
:103B9C009AB2054B1A8000BFBD4680BDDC070020E1
:103BAC0020010020E4070020E607002080B582B049
:103BBC0000AF78607B681B68234A93423FD1234B4C
:103BCC001B782F2B03D9214B1B78392B0FD91F4B6B
:103BDC001B78602B03D91D4B1B787A2B07D91B4BF9
:103BEC001B78402B25D9194B1B785A2B21D81849F7
:103BFC00184805F0C7FA1748FCF7A2FA03469AB220
:103C0C0064231449144804F099FB642301220F49DE
:103C1C00114804F093FB11490E4805F0B3FA0D4816
:103C2C00FCF78EFA03469AB264230A490A4804F058
:103C3C0085FB01220549084804F012FC00BF00BFB7
:103C4C000837BD4680BD00BF004400404C08002032
:103C5C00A09B0008E807002044040020C09B00083B
:103C6C00B0B584B000AF3B4600221A605A609A602F
:103C7C00DA60214B1B789BB23B80204BB3F90030B0
:103C8C009BB27B801E4BB3F900309BB2BB801D4BAB
:103C9C00B3F900309BB2FB8001F0A2FE1A4B1968FD
:103CAC001A4B1B785B0010333B4433F8103C9BB22F
:103CBC0000221C46154622462B46012001F020FE10
:103CCC00114B1B680233104A136001F0AFFE0F4B0F
:103CDC001B780133DAB20D4B1A700C4B1B78072B87
:103CEC0006D90A4B00221A70074B094A1A6000BF0A
:103CFC0000BF1037BD46B0BD2E0500203405002096
:103D0C0036050020380500200C000020B8080020E3
:103D1C0000FC010880B487B000AF3B1D00221A6084
:103D2C005A609A60DA600023FB7510E0FB7D5B0043
:103D3C0003F1006303F5FE331A68FB7D92B25B005E
:103D4C0018333B4423F8142CFB7D0133FB75FB7DAE
:103D5C00072BEBD9BB88DAB2094B1A70FB881AB265
:103D6C00084B1A803B891AB2074B1A807B891AB20E
:103D7C00064B1A8000BF1C37BD4680BC704700BF85
:103D8C00B0080020B2080020B4080020B6080020BB
:103D9C0080B588B000AF00233B6101F021FE0F4BD2
:103DAC00FB610123BB6100233B60FB69BB60BB690A
:103DBC00FB6007F110023B461146184601F002FF6A
:103DCC000346002B03D001F041FE786102E001F0C4
:103DDC002DFE00BF2037BD4680BD00BF00FC010892
:103DEC0080B586B000AF78600023FB7500233B6183
:103DFC000023BB600023FB607B68002B01D10123F7
:103E0C00BEE07B689B68002B7B689B6A002B09D10A
:103E1C007B680022DA627B68002283F824207868B1
:103E2C00FDF746F8786800F0C5FB0346FB757B6828
:103E3C009B6A03F01003002B40F09980FB7D002B54
:103E4C0040F095807B689B6A23F4885323F002032F
:103E5C0043F002027B689A627B685A687B68DB6974
:103E6C001A437B681B7B5B001343BA681343BB602C
:103E7C007B689B68B3F5807F03D07B689B68012BC4
:103E8C0002D14FF4807300E000233A6913433B6185
:103E9C007B681B7D012B19D17B681B7B002B09D107
:103EAC007B689B69013B5A033B69134343F40063F2
:103EBC003B610BE07B689B6A43F020027B689A6253
:103ECC007B68DB6A43F001027B68DA627B681B6803
:103EDC005B6823F469417B681B683A690A435A6042
:103EEC007B681B689A68284B13407A681268B9681B
:103EFC000B4393607B689B68B3F5807F03D07B6832
:103F0C009B68012B04D17B681B69013B1B05FB6083
:103F1C007B681B68DB6A23F470017B681B68FA689A
:103F2C000A43DA627B681B689A68184B1340BA68BC
:103F3C009A420BD17B680022DA627B689B6A23F081
:103F4C00030343F001027B689A6218E07B689B6A6A
:103F5C0023F0120343F010027B689A627B68DB6AE1
:103F6C0043F001027B68DA620123FB7507E07B6892
:103F7C009B6A43F010027B689A620123FB75FB7D00
:103F8C0018461837BD4680BDFDF7E1FFFE0E1FFF3A
:103F9C0080B584B000AF78600023FB737B6893F826
:103FAC002430012B01D1022398E07B68012283F895
:103FBC002420786800F0A4FA0346FB73FB7B002BEB
:103FCC0040F087807B689B6A23F4407323F00103E5
:103FDC0043F480727B689A627B681B68414A934207
:103FEC0005D1414B5B6803F47023002B15D17B6822
:103FFC009B6A23F480127B689A627B681B685B68FF
:10400C0003F48063002B26D07B689B6A23F4405317
:10401C0043F480527B689A621DE07B689B6A43F490
:10402C0080127B689A627B681B682F4A934204D08B
:10403C007B681B682B4A93420DD12B4B5B6803F4B6
:10404C008063002B07D07B689B6A23F4405343F4B6
:10405C0080527B689A627B689B6A03F48053002BC6
:10406C0006D07B68DB6A23F006027B68DA6202E02A
:10407C007B680022DA627B68002283F824207B684C
:10408C001B686FF002021A607B681B689B6803F464
:10409C006023B3F5602F13D17B681B68114A9342E0
:1040AC0005D1114B5B6803F47023002B08D17B689E
:1040BC001B689A687B681B6842F4A0029A600CE04B
:1040CC007B681B689A687B681B6842F480129A6054
:1040DC0003E07B68002283F82420FB7B1846103712
:1040EC00BD4680BD002801400024014090B587B03A
:1040FC0000AF7860396000237B610023FB600023F4
:10410C003B6100F0F1FA78617B681B689B6803F4F3
:10411C008073002B0BD07B689B6A43F020027B687A
:10412C009A627B68002283F824200123D3E07B6809
:10413C001B685B6803F48073002B31D17B681B68B0
:10414C00DB6A03F47003002B2AD121E03B68B3F146
:10415C00FF3F1DD03B68002B07D000F0C5FA02468C
:10416C007B69D31A3A689A4212D27B681B681B6827
:10417C0003F00203002B0BD17B689B6A43F0040213
:10418C007B689A627B68002283F824200323A2E0D8
:10419C007B681B681B6803F00203002BD6D070E011
:1041AC004F4B1C68022000F079FF0346B4FBF3F27E
:1041BC007B681B6819694B4B0B40002B18D17B6833
:1041CC001B68D968484B0B40002B11D17B681B68CE
:1041DC001969464B0B40002B08D17B681B68D968CA
:1041EC00434B0B40002B01D1142320E029231EE06C
:1041FC007B681B6819693D4B0B40002B06D17B6813
:10420C001B68D9683A4B0B40002B0DD07B681B68A0
:10421C001969384B0B40002B08D17B681B68D96897
:10422C00344B0B40002B01D1542300E0FC2302FB48
:10423C0003F33B6121E03B68B3F1FF3F1AD03B68CD
:10424C00002B07D000F050FA02467B69D31A3A686B
:10425C009A420FD2FB683A699A420BD97B689B6AE7
:10426C0043F004027B689A627B68002283F8242066
:10427C00032330E0FB680133FB60FB683A699A4228
:10428C00D9D87B681B686FF012021A607B689B6A36
:10429C0043F400727B689A627B681B689B6803F42A
:1042AC006023B3F5602F15D17B681B7B002B11D1DC
:1042BC007B689B6A23F480727B689A627B689B6A3A
:1042CC0003F48053002B05D17B689B6A43F00102F9
:1042DC007B689A62002318461C37BD4690BD00BF10
:1042EC001800002024499224244992009224491257
:1042FC00922449004992240080B483B000AF7860C6
:10430C007B681B68DB6C18460C37BD4680BC70475D
:10431C0080B485B000AF786039600023FB73002354
:10432C00BB607B6893F82430012B01D10223DCE0C5
:10433C007B68012283F824203B685B68062B1CD821
:10434C007B681B68596B3B685A6813469B00134487
:10435C00053B1F2202FA03F3DB4319403B68186844
:10436C003B685A6813469B001344053B00FA03F262
:10437C007B681B680A435A633CE03B685B680C2B08
:10438C001CD87B681B68196B3B685A6813469B00EA
:10439C001344233B1F2202FA03F3DB4319403B680F
:1043AC0018683B685A6813469B001344233B00FA79
:1043BC0003F27B681B680A431A631BE07B681B686B
:1043CC00D96A3B685A6813469B001344413B1F2231
:1043DC0002FA03F3DB4319403B6818683B685A68E0
:1043EC0013469B001344413B00FA03F27B681B68A5
:1043FC000A43DA623B681B68092B1CD97B681B6873
:10440C00D9683B681A6813465B0013441E3B0722AD
:10441C0002FA03F3DB4319403B6898683B681A685F
:10442C0013465B0013441E3B00FA03F27B681B68C7
:10443C000A43DA6019E07B681B6819693B681A68E3
:10444C0013465B001344072202FA03F3DB431940C3
:10445C003B6898683B681A6813465B00134400FA83
:10446C0003F27B681B680A431A613B681B68102BBC
:10447C0003D03B681B68112B32D17B681B681D4A2B
:10448C00934225D17B681B689B6803F40003002BC7
:10449C0026D17B681B689A687B681B6842F4000213
:1044AC009A603B681B68102B1AD1134B1B68134A7C
:1044BC00A2FB03239A0C13469B0013445B00BB60C6
:1044CC0002E0BB68013BBB60BB68002BF9D107E085
:1044DC007B689B6A43F020027B689A620123FB7322
:1044EC007B68002283F82420FB7B18461437BD46DA
:1044FC0080BC7047002401401800002083DE1B4361
:10450C0080B584B000AF78600023FB600023BB60F3
:10451C007B681B689B6803F00103012B40D07B6810
:10452C001B689A687B681B6842F001029A601F4BFB
:10453C001B681F4AA2FB03239B0CBB6002E0BB68F9
:10454C00013BBB60BB68002BF9D100F0CDF8F860E3
:10455C001FE000F0C9F80246FB68D31A022B18D9E9
:10456C007B681B689B6803F00103012B11D07B68EF
:10457C009B6A43F010027B689A627B68DB6A43F0AB
:10458C0001027B68DA627B68002283F82420012315
:10459C0007E07B681B689B6803F00103012BD8D1F3
:1045AC00002318461037BD4680BD00BF1800002000
:1045BC0083DE1B4380B584B000AF78600023FB60C2
:1045CC007B681B689B6803F00103012B2ED17B6871
:1045DC001B689A687B681B6822F001029A6000F0E5
:1045EC0083F8F8601BE000F07FF80246FB68D31AF2
:1045FC00022B14D97B681B689B6803F00103012B09
:10460C000DD17B689B6A43F010027B689A627B68D1
:10461C00DB6A43F001027B68DA62012307E07B6806
:10462C001B689B6803F00103012BDCD000231846A8
:10463C001037BD4680BD000080B500AF084B1B682D
:10464C00074A43F010031360032001F017F902200E
:10465C0000F008F8FCF7FAFB0023184680BD00BFF9
:10466C000020024080B582B000AF7860124B1A680F
:10467C00124B1B7819464FF47A73B3FBF1F3B2FB70
:10468C00F3F3184601F02FF90346002B01D0012358
:10469C000EE07B680F2B0AD8002279684FF0FF30B0
:1046AC0001F0F7F8064A7B681360002300E0012351
:1046BC0018460837BD4680BD1800002014000020A5
:1046CC001000002080B400AF054B1B781A46054B38
:1046DC001B681344034A136000BFBD4680BC70477F
:1046EC0014000020BC08002080B400AF024B1B68F3
:1046FC001846BD4680BC7047BC08002080B586B00B
:10470C0000AF78607B68002B01D1012372E27B68DB
:10471C001B6803F00103002B00F08780924B5B6851
:10472C0003F00C03042B0CD08F4B5B6803F00C03D1
:10473C00082B12D18C4B5B6803F48033B3F5803FAC
:10474C000BD1894B1B6803F40033002B6CD07B68B6
:10475C005B68002B68D101234CE27B685B68B3F586
:10476C00803F06D1804B1B687F4A43F48033136033
:10477C002EE07B685B68002B0CD17B4B1B687A4A64
:10478C0023F480331360784B1B68774A23F480231F
:10479C0013601DE07B685B68B3F5A02F0CD1724BE6
:1047AC001B68714A43F4802313606F4B1B686E4A7D
:1047BC0043F4803313600BE06B4B1B686A4A23F4A1
:1047CC0080331360684B1B68674A23F480231360A3
:1047DC007B685B68002B13D0FFF786FF386108E01D
:1047EC00FFF782FF02463B69D31A642B01D90323DE
:1047FC0000E25D4B1B6803F40033002BF0D014E097
:10480C00FFF772FF386108E0FFF76EFF02463B6965
:10481C00D31A642B01D90323ECE1534B1B6803F42B
:10482C000033002BF0D100E000BF7B681B6803F065
:10483C000203002B63D04C4B5B6803F00C03002B82
:10484C000BD0494B5B6803F00C03082B1CD1464B77
:10485C005B6803F48033002B16D1434B1B6803F0C9
:10486C000203002B05D07B681B69012B01D00123AF
:10487C00C0E13D4B1B6823F0F8027B685B69DB00F1
:10488C00394913430B603AE07B681B69002B20D03D
:10489C00364B01221A60FFF727FF386108E0FFF75B
:1048AC0023FF02463B69D31A022B01D90323A1E152
:1048BC002D4B1B6803F00203002BF0D02A4B1B6816
:1048CC0023F0F8027B685B69DB00274913430B601C
:1048DC0015E0264B00221A60FFF706FF386108E04E
:1048EC00FFF702FF02463B69D31A022B01D90323BF
:1048FC0080E11D4B1B6803F00203002BF0D17B6899
:10490C001B6803F00803002B3AD07B689B69002BD3
:10491C0019D0174B01221A60FFF7E6FE386108E048
:10492C00FFF7E2FE02463B69D31A022B01D903239F
:10493C0060E10D4B5B6A03F00203002BF0D0012009
:10494C0000F0D8FA1CE00A4B00221A60FFF7CCFEEC
:10495C0038610FE0FFF7C8FE02463B69D31A022B01
:10496C0008D9032346E100BF001002400000424278
:10497C0080044242924B5B6A03F00203002BE9D1A4
:10498C007B681B6803F00403002B00F0A680002357
:10499C00FB758B4BDB6903F08053002B0DD1884BDF
:1049AC00DB69874A43F08053D361854BDB6903F0A5
:1049BC008053BB60BB680123FB75824B1B6803F4FF
:1049CC008073002B18D17F4B1B687E4A43F4807395
:1049DC001360FFF789FE386108E0FFF785FE024699
:1049EC003B69D31A642B01D9032303E1754B1B6874
:1049FC0003F48073002BF0D07B68DB68012B06D1AD
:104A0C006F4B1B6A6E4A43F0010313622DE07B6807
:104A1C00DB68002B0CD16A4B1B6A694A23F001033B
:104A2C001362674B1B6A664A23F0040313621CE093
:104A3C007B68DB68052B0CD1614B1B6A604A43F029
:104A4C00040313625E4B1B6A5D4A43F0010313625D
:104A5C000BE05B4B1B6A5A4A23F001031362584B61
:104A6C001B6A574A23F0040313627B68DB68002B34
:104A7C0015D0FFF739FE38610AE0FFF735FE024624
:104A8C003B69D31A41F28832934201D90323B1E036
:104A9C004B4B1B6A03F00203002BEED014E0FFF724
:104AAC0023FE38610AE0FFF71FFE02463B69D31A6A
:104ABC0041F28832934201D903239BE0404B1B6A9D
:104ACC0003F00203002BEED1FB7D012B05D13C4BF7
:104ADC00DB693B4A23F08053D3617B68DB69002B95
:104AEC0000F08780364B5B6803F00C03082B61D019
:104AFC007B68DB69022B46D1334B00221A60FFF72F
:104B0C00F3FD386108E0FFF7EFFD02463B69D31A6D
:104B1C00022B01D903236DE0294B1B6803F00073B2
:104B2C00002BF0D17B681B6AB3F5803F08D1244B76
:104B3C005B6823F400327B689B68214913434B600C
:104B4C001F4B5B6823F474127B68196A7B685B6A81
:104B5C000B431B4913434B601B4B01221A60FFF79D
:104B6C00C3FD386108E0FFF7BFFD02463B69D31A6D
:104B7C00022B01D903233DE0114B1B6803F000739A
:104B8C00002BF0D035E0104B00221A60FFF7ACFD83
:104B9C00386108E0FFF7A8FD02463B69D31A022BE7
:104BAC0001D9032326E0064B1B6803F00073002B8E
:104BBC00F0D11EE07B68DB69012B07D1012319E0E2
:104BCC000010024000700040600042420B4B5B68DA
:104BDC00FB60FB6803F480327B681B6A9A4206D147
:104BEC00FB6803F470127B685B6A9A4201D0012364
:104BFC0000E0002318461837BD4680BD0010024067
:104C0C0080B584B000AF786039607B68002B01D12F
:104C1C000123D0E06A4B1B6803F007033A689A4201
:104C2C0010D9674B1B6823F0070265493B68134397
:104C3C000B60634B1B6803F007033A689A4201D080
:104C4C000123B8E07B681B6803F00203002B20D023
:104C5C007B681B6803F00403002B05D0594B5B6881
:104C6C00584A43F4E06353607B681B6803F0080305
:104C7C00002B05D0534B5B68524A43F4605353608E
:104C8C00504B5B6823F0F0027B689B684D491343E3
:104C9C004B607B681B6803F00103002B40D07B68E2
:104CAC005B68012B07D1474B1B6803F40033002BC7
:104CBC0015D101237FE07B685B68022B07D1414B48
:104CCC001B6803F00073002B09D1012373E03D4BEB
:104CDC001B6803F00203002B01D101236BE0394B5D
:104CEC005B6823F003027B685B68364913434B60B7
:104CFC00FFF7FAFCF8600AE0FFF7F6FC0246FB68E7
:104D0C00D31A41F28832934201D9032353E02D4B3D
:104D1C005B6803F00C027B685B689B009A42EBD1EA
:104D2C00274B1B6803F007033A689A4210D2244BB6
:104D3C001B6823F0070222493B6813430B60204B8E
:104D4C001B6803F007033A689A4201D0012332E052
:104D5C007B681B6803F00403002B08D0194B5B68BD
:104D6C0023F4E0627B68DB68164913434B607B6875
:104D7C001B6803F00803002B09D0124B5B6823F46B
:104D8C0060527B681B69DB000E4913434B6000F0DB
:104D9C0021F802460B4B5B681B0903F00F030A4911
:104DAC00CB5C22FA03F3094A1360094B1B681846C3
:104DBC00FFF758FC002318461037BD4680BD00BFD6
:104DCC00002002400010024050A3000818000020F0
:104DDC001000002090B48AB000AF294B3C1D0FCBC3
:104DEC0084E80F0040F201233B800023FB61002389
:104DFC00BB6100237B6200237B6100233B62214B60
:104E0C005B68FB61FB6903F00C03042B02D0082BDD
:104E1C0003D02BE01C4B3B622BE0FB699B0C03F09B
:104E2C000F0328333B4413F8243C7B61FB6903F4E8
:104E3C008033002B12D0134B5B685B0C03F0010327
:104E4C0028333B4413F8283CBB617B690E4A03FBB7
:104E5C0002F2BB69B2FBF3F37B6204E07B690B4AA1
:104E6C0002FB03F37B627B6A3B6202E0064B3B6214
:104E7C0000BF3B6A18462837BD4690BC704700BF40
:104E8C00C49B00080010024000127A0000093D008B
:104E9C0080B400AF024B1B681846BD4680BC7047FF
:104EAC001800002080B500AFFFF7F2FF0246054B5B
:104EBC005B681B0A03F007030349CB5C22FA03F37C
:104ECC00184680BD0010024060A3000880B500AFFA
:104EDC00FFF7DEFF0246054B5B68DB0A03F00703B6
:104EEC000349CB5C22FA03F3184680BD0010024044
:104EFC0060A3000880B485B000AF78600A4B1B68D3
:104F0C000A4AA2FB03235B0A7A6802FB03F3FB60E9
:104F1C0000BFFB685A1EFA60002BF9D100BF00BF1E
:104F2C001437BD4680BC704718000020D34D62106A
:104F3C0080B586B000AF786000233B610023FB6036
:104F4C007B681B6803F00103002B7DD00023FB75ED
:104F5C004F4BDB6903F08053002B0DD14C4BDB69BD
:104F6C004B4A43F08053D361494BDB6903F08053C8
:104F7C00BB60BB680123FB75464B1B6803F4807355
:104F8C00002B18D1434B1B68424A43F480731360C7
:104F9C00FFF7AAFB386108E0FFF7A6FB02463B6966
:104FAC00D31A642B01D903236DE03A4B1B6803F42D
:104FBC008073002BF0D0364B1B6A03F44073FB60FC
:104FCC00FB68002B2ED07B685B6803F44073FA6897
:104FDC009A4227D02E4B1B6A23F44073FB602E4B56
:104FEC0001221A602C4B00221A60294AFB681362BA
:104FFC00FB6803F00103002B14D0FFF775FB38613D
:10500C000AE0FFF771FB02463B69D31A41F2883282
:10501C00934201D9032336E01D4B1B6A03F00203B4
:10502C00002BEED01A4B1B6A23F440727B685B6832
:10503C00174913430B62FB7D012B05D1144BDB6924
:10504C00134A23F08053D3617B681B6803F002037F
:10505C00002B08D00E4B5B6823F440427B689B68A6
:10506C000B4913434B607B681B6803F01003002B48
:10507C0008D0074B5B6823F480027B68DB6804492B
:10508C0013434B60002318461837BD4680BD00BF44
:10509C0000100240007000404004424290B58DB0B8
:1050AC0000AF7860584B07F10C040FCB84E80F006D
:1050BC0040F201233B8100237B620023FB6200232F
:1050CC003B620023FB610023BB627B68102B0AD080
:1050DC007B68102B00F28E807B68012B49D07B689B
:1050EC00022B79D086E0494B5B68FB61474B1B6810
:1050FC0003F08073002B7FD0FB699B0C03F00F0334
:10510C0030333B4413F8243C3B62FB6903F480339B
:10511C00002B17D03D4B5B685B0C03F00103303365
:10512C003B4413F8283C7B62FB6903F48033002B6F
:10513C000DD0374A7B6AB2FBF3F23B6A02FB03F3F6
:10514C00FB6204E03B6A334A02FB03F3FB622F4B26
:10515C005B6803F48003B3F5800F02D1FB6ABB627A
:10516C004AE0FB6A5B002C4AA2FB03235B08BB6290
:10517C0042E0264B1B6AFB61FB6903F44073B3F5F9
:10518C00807F08D1FB6903F00203002B03D04FF49E
:10519C000043BB621FE0FB6903F44073B3F5007F6F
:1051AC0009D11A4B5B6A03F00203002B03D049F6BA
:1051BC004043BB620FE0FB6903F44073B3F5407FDF
:1051CC001CD1124B1B6803F40033002B16D04FF28A
:1051DC002443BB6212E011E0FFF778FE02460B4B52
:1051EC005B689B0B03F0030301335B00B2FBF3F32F
:1051FC00BB6204E000BF02E000BF00E000BFBB6A7E
:10520C0018463437BD4690BDD49B000800100240B0
:10521C0000127A0000093D00ABAAAAAA80B48BB098
:10522C0000AF7860396000237B6200233B6269E148
:10523C0001227B6A02FA03F3FB613B681B68FA6983
:10524C001340BB61BA69FB699A4240F058813B68D4
:10525C005B689A4A93425ED0984A934275D8984AB2
:10526C00934258D0964A93426FD8964A934252D062
:10527C00944A934269D8944A93424CD0924A9342AE
:10528C0063D8924A934246D0904A93425DD8122BEF
:10529C002AD8122B59D801A252F823F02353000814
:1052AC00FD5200080F5300085153000857530008D3
:1052BC00575300085753000857530008575300081A
:1052CC00575300085753000857530008575300080A
:1052DC0057530008575300085753000857530008FA
:1052EC000553000819530008794A934213D02CE057
:1052FC003B68DB683B6229E03B68DB6804333B625C
:10530C0024E03B68DB6808333B621FE03B68DB68EA
:10531C000C333B621AE03B689B68002B02D10423E0
:10532C003B6213E03B689B68012B05D108233B6271
:10533C007B68FA691A6109E008233B627B68FA69A9
:10534C005A6103E000233B6200E000BFBB69FF2B06
:10535C0001D87B6801E07B6804337B61BB69FF2B60
:10536C0002D87B6A9B0002E07B6A083B9B003B6196
:10537C007B691A680F213B6901FA03F3DB431A407E
:10538C00396A3B6901FA03F31A437B691A603B687B
:10539C005B6803F08053002B00F0B1804D4B9B6990
:1053AC004C4A43F0010393614A4B9B6903F00103A0
:1053BC00BB60BB68484A7B6A9B08023352F82330B7
:1053CC00FB607B6A03F003039B000F2202FA03F3DA
:1053DC00DB43FA681340FB607B68404A934213D06E
:1053EC007B683F4A93420DD07B683E4A934207D07C
:1053FC007B683D4A934201D1032306E0042304E079
:10540C00022302E0012300E000237A6A02F0030287
:10541C0092009340FA681343FB602F497B6A9B0808
:10542C000233FA6841F823203B685B6803F480334D
:10543C00002B06D02D4B1A682C49BB6913430B600B
:10544C0006E02A4B1A68BB69DB43284913400B6002
:10545C003B685B6803F40033002B06D0234B5A687F
:10546C002249BB6913434B6006E0204B5A68BB6969
:10547C00DB431E4913404B603B685B6803F48013AD
:10548C00002B06D0194B9A681849BB6913438B60E3
:10549C0006E0164B9A68BB69DB43144913408B60DA
:1054AC003B685B6803F40013002B21D00F4BDA68C8
:1054BC000E49BB691343CB6021E000BF00003210E2
:1054CC00000031100000221000002110000012100A
:1054DC0000001110001002400000014000080140C3
:1054EC00000C014000100140001401400004014078
:1054FC000B4BDA68BB69DB4309491340CB607B6A11
:10550C0001337B623B681A687B6A22FA03F3002B37
:10551C007FF48EAE00BF00BF2C37BD4680BC7047F9
:10552C000004014080B485B000AF78600B467B80EE
:10553C007B689A687B881340002B02D00123FB7395
:10554C0001E00023FB73FB7B18461437BD4680BC7F
:10555C00704780B483B000AF78600B467B801346F5
:10556C007B707B78002B03D07A887B681A6103E010
:10557C007B881A047B681A6100BF0C37BD4680BC5F
:10558C00704780B485B000AF78600023FB737B68F4
:10559C0093F82130022B08D07B6804229A637B6835
:1055AC00002283F82020012320E07B681B681A6806
:1055BC007B681B6822F00E021A607B681B681A68F5
:1055CC007B681B6822F001021A607B681A6C7B688E
:1055DC00DB6B012101FA02F25A607B68012283F82D
:1055EC0021207B68002283F82020FB7B184614378F
:1055FC00BD4680BC7047000080B584B000AF7860B9
:10560C000023FB737B6893F82130022B05D07B6859
:10561C0004229A630123FB7351E07B681B681A68B0
:10562C007B681B6822F00E021A607B681B681A6884
:10563C007B681B6822F001021A607B681B68224A97
:10564C00934229D07B681B68204A934222D07B6806
:10565C001B681F4A93421AD07B681B681D4A9342F1
:10566C0012D07B681B681C4A93420AD07B681B686B
:10567C001A4A934202D14FF480130EE04FF080731C
:10568C000BE04FF4803308E04FF4805305E04FF407
:10569C00807302E0102300E00123114A53607B6801
:1056AC00012283F821207B68002283F820207B686C
:1056BC005B6B002B03D07B685B6B78689847FB7B3C
:1056CC0018461037BD4680BD080002401C00024041
:1056DC003000024044000240580002406C0002407E
:1056EC000000024080B485B000AF78607B6803F0A6
:1056FC000703FB600C4BDB68BB60BA684FF6FF031B
:10570C001340BB60FB681A02BB68134343F0BF63D2
:10571C0043F40033BB60044ABB68D36000BF14374A
:10572C00BD4680BC704700BF00ED00E080B400AF08
:10573C00044BDB681B0A03F007031846BD4680BC0C
:10574C00704700BF00ED00E080B483B000AF0346AB
:10575C00FB7197F90730002B0BDBFB7903F01F0271
:10576C00064997F907305B09012000FA02F241F86B
:10577C00232000BF0C37BD4680BC704700E100E021
:10578C0080B483B000AF03463960FB7197F90730E2
:10579C00002B0ADB3B68DAB20C4997F9073012018F
:1057AC00D2B20B4483F800230AE03B68DAB2084912
:1057BC00FB7903F00F03043B1201D2B20B441A76AF
:1057CC0000BF0C37BD4680BC704700BF00E100E055
:1057DC0000ED00E080B489B000AFF860B9607A6089
:1057EC00FB6803F00703FB61FB69C3F10703042BA0
:1057FC0028BF0423BB61FB690433062B02D9FB6968
:10580C00033B00E000237B614FF0FF32BB6902FADF
:10581C0003F3DA43BB681A407B699A404FF0FF31BF
:10582C007B6901FA03F3D9437B680B401343184699
:10583C002437BD4680BC704780B582B000AF78601D
:10584C007B68013BB3F1807F01D301230FE00A4A4F
:10585C007B68013B53600F214FF0FF30FFF790FF47
:10586C00054B00229A60044B07221A60002318464D
:10587C000837BD4680BD00BF10E000E080B582B0A7
:10588C0000AF78607868FFF72DFF00BF0837BD4682
:10589C0080BD80B586B000AF0346B9607A60FB73FB
:1058AC0000237B61FFF742FF78617A68B9687869F9
:1058BC00FFF790FF024697F90F3011461846FFF795
:1058CC005FFF00BF1837BD4680BD80B582B000AF0A
:1058DC000346FB7197F907301846FFF735FF00BFF9
:1058EC000837BD4680BD80B582B000AF786078685F
:1058FC00FFF7A2FF034618460837BD4680BD0000DF
:10590C00F0B587B000AFF860B960C7E90023012398
:10591C00FB750023BB7500237B752F4B1B7E012B66
:10592C0001D1022354E02C4B01221A764CF2503058
:10593C0000F0B2F80346FB75FB7D002B44D1FB68ED
:10594C00012B02D101237B7507E0FB68022B02D1EE
:10595C0002237B7501E004237B750023BB752DE0CE
:10596C00BB7D5A00BB6802EB030CBB7D1901D7E968
:10597C000023C1F12006A1F1200022FA01F403FA60
:10598C0006F6344323FA00F0044323FA01F5A3B2DC
:10599C001946604600F064F84CF2503000F07CF888
:1059AC000346FB750D4B1B690C4A23F00103136175
:1059BC00FB7D002B07D1BB7D0133BB75BA7D7B7D95
:1059CC009A42CDD300E000BF034B00221A76FB7D38
:1059DC0018461C37BD46F0BDC00800200020024010
:1059EC0080B483B000AF0023FB710D4B1B6903F037
:1059FC008003002B0DD00A4B0A4A5A60084B0A4A06
:105A0C005A60074B1B6903F08003002B01D0012364
:105A1C00FB71FB7918460C37BD4680BC704700BF44
:105A2C000020024023016745AB89EFCD80B400AF65
:105A3C00054B1B69044A43F080031361002318468D
:105A4C00BD4680BC704700BF0020024080B400AF50
:105A5C00024BDB691846BD4680BC7047C00800206D
:105A6C0080B483B000AF78600B467B80084B00227B
:105A7C00DA61084B1B69074A43F0010313617B6829
:105A8C007A881A8000BF0C37BD4680BC704700BFB7
:105A9C00C00800200020024080B584B000AF7860C0
:105AAC00FEF722FEF86010E07B68B3F1FF3F0CD0EC
:105ABC007B68002B07D0FEF717FE0246FB68D31A53
:105ACC007A689A4201D2032325E0154BDB6803F078
