:020000040800F2
:1000000000500020E55A00082F5B0008355B00080F
:100010003B5B0008415B0008475B000800000000F4
:100020000000000000000000000000004D5B000820
:10003000535B000800000000595B0008A95C000841
:100040005F5B0008655B00086B5B0008715B000884
:10005000775B00087D5B0008835B0008895B000814
:100060008F5B0008955B00089B5B0008A15B0008A4
:10007000A75B0008AD5B0008B35B0008B95B000834
:10008000BF5B0008C55B0008CB5B0008D15B0008C4
:10009000D75B0008DD5B0008E35B0008E95B000854
:1000A000EF5B0008F55B0008FB5B0008015C0008E3
:1000B000655C0008075C00087D5C00080D5C0008BA
:1000C000135C0008195C00081F5C0008255C000830
:1000D0002B5C0008315C0008955C0008375C000868
:1000E0003D5C0008435C0008495C0008000000001B
:1000F0000000000000000000000000000000000000
:0C01000000000000000000004F5C000840
:10010C0010B5054C237833B9044B13B10448AFF345
:10011C0000800123237010BD180000200000000097
:10012C00085D000808B5034B1BB103490348AFF346
:10013C00008008BD000000001C000020085D0008C5
:10014C00034613F8012B002AFBD1181A013870470B
:10015C0080F0004002E000BF81F0004142001FBF70
:10016C005FEA410392EA030F7FEA226C7FEA236C79
:10017C006AD04FEA1262D2EB1363C1BFD21841406E
:10018C0048404140B8BF5B42192B88BF704710F004
:10019C00004F40F4000020F07F4018BF404211F0A7
:1001AC00004F41F4000121F07F4118BF494292EA0F
:1001BC00030F3FD0A2F1010241FA03FC10EB0C003B
:1001CC00C3F1200301FA03F100F0004302D54942C8
:1001DC0060EB4000B0F5000F13D3B0F1807F06D375
:1001EC0040084FEA310102F10102FE2A51D2B1F16D
:1001FC00004F40EBC25008BF20F0010040EA030062
:10020C007047490040EB0000013A28BFB0F5000FE1
:10021C00EDD2B0FA80FCACF1080CB2EB0C0200FA97
:10022C000CF0AABF00EBC25052421843BCBFD040E6
:10023C001843704792F0000F81F4000106BF80F460
:10024C0000000132013BB5E74FEA41037FEA226C23
:10025C0018BF7FEA236C21D092EA030F04D092F0EE
:10026C00000F08BF0846704790EA010F1CBF002022
:10027C00704712F07F4F04D1400028BF40F000407F
:10028C00704712F100723CBF00F50000704700F09F
:10029C00004343F0FE4040F4000070477FEA2262C6
:1002AC0016BF08467FEA23630146420206BF5FEA97
:1002BC00412390EA010F40F4800070474FF0000397
:1002CC0004E000BF10F0004348BF40425FEA000C5E
:1002DC0008BF704743F0964301464FF000001CE006
:1002EC0050EA010208BF70474FF000030AE000BF5C
:1002FC0050EA010208BF704711F0004302D540429A
:10030C0061EB41015FEA010C02BF8446014600200B
:10031C0043F0B64308BFA3F18053A3F50003BCFA26
:10032C008CF2083AA3EBC25310DB01FA02FC6344D3
:10033C0000FA02FCC2F12002BCF1004F20FA02F2DA
:10034C0043EB020008BF20F00100704702F12002CD
:10035C0001FA02FCC2F1200250EA4C0021FA02F22E
:10036C0043EB020008BF20EADC7070474FF0FF0C33
:10037C001CEAD0521EBF1CEAD15392EA0C0F93EA2E
:10038C000C0F6FD01A4480EA010C400218BF5FEAD0
:10039C0041211ED04FF0006343EA501043EA511143
:1003AC00A0FB01310CF00040B1F5000F3EBF49003D
:1003BC0041EAD3715B0040EA010062F17F02FD2A41
:1003CC001DD8B3F1004F40EBC25008BF20F0010024
:1003DC00704790F0000F0CF0004C08BF49024CEA3B
:1003EC00502040EA51207F3AC2BFD2F1FF0340EACD
:1003FC00C250704740F400004FF00003013A5DDC3E
:10040C0012F1190FDCBF00F000407047C2F100027E
:10041C00410021FA02F1C2F1200200FA02FC5FEA6B
:10042C00310040F1000053EA4C0308BF20EADC70B5
:10043C00704792F0000F00F0004C02BF400010F427
:10044C00000F013AF9D040EA0C0093F0000F01F0D4
:10045C00004C02BF490011F4000F013BF9D041EAF6
:10046C000C018FE70CEAD15392EA0C0F18BF93EAF8
:10047C000C0F0AD030F0004C18BF31F0004CD8D122
:10048C0080EA010000F00040704790F0000F17BFA9
:10049C0090F0004F084691F0000F91F0004F14D0EF
:1004AC0092EA0C0F01D142020FD193EA0C0F03D147
:1004BC004B0218BF084608D180EA010000F000404A
:1004CC0040F0FE4040F40000704740F0FE4040F425
:1004DC00400070474FF0FF0C1CEAD0521EBF1CEAC4
:1004EC00D15392EA0C0F93EA0C0F69D0A2EB0302E2
:1004FC0080EA010C49024FEA402037D04FF080537C
:10050C0043EA111143EA10130CF000408B4238BF40
:10051C005B0042F17D024FF4000C8B4224BF5B1A4E
:10052C0040EA0C00B3EB510F24BFA3EB510340EA9C
:10053C005C00B3EB910F24BFA3EB910340EA9C004A
:10054C00B3EBD10F24BFA3EBD10340EADC001B01BA
:10055C0018BF5FEA1C1CE0D1FD2A3FF650AF8B425E
:10056C0040EBC25008BF20F0010070470CF0004C6B
:10057C004CEA50207F32C2BFD2F1FF0340EAC25096
:10058C00704740F400004FF00003013A37E792F057
:10059C00000F00F0004C02BF400010F4000F013AB5
:1005AC00F9D040EA0C0093F0000F01F0004C02BFB0
:1005BC00490011F4000F013BF9D041EA0C0195E719
:1005CC000CEAD15392EA0C0F08D142027FF47DAFB2
:1005DC0093EA0C0F7FF470AF084676E793EA0C0FA2
:1005EC0004D14B023FF44CAF08466EE730F0004CA0
:1005FC0018BF31F0004CCAD130F000427FF45CAF30
:10060C0031F000437FF43CAF5FE700BF4FEA40029C
:10061C00B2F1FE4F0FD34FF09E03B3EB12620DD924
:10062C004FEA002343F0004310F0004F23FA02F08E
:10063C0018BF404270474FF00000704712F1610F35
:10064C0001D1420205D110F0004008BF6FF000400C
:10065C0070474FF00000704742000ED2B2F1FE4FCF
:10066C000BD34FF09E03B3EB126209D44FEA002375
:10067C0043F0004323FA02F070474FF0000070473C
:10068C0012F1610F01D1420202D14FF0FF307047DD
:10069C004FF00000704700BF2DE9F04389B00024F3
:1006AC000494059406940794324B9A6942F0100214
:1006BC009A619A6902F010020192019A9A6942F0C9
:1006CC0004029A619A6902F004020292029A9A69EF
:1006DC0042F008029A619B6903F008030393039BA1
:1006EC00DFF8949022464FF40051484603F017FA75
:1006FC00DFF8888022460221404603F010FA204E93
:10070C00224643F23B31304603F009FA4FF40053D2
:10071C0004930127059706940225079504A94846DA
:10072C0003F0E4F8049505970694079504A9404650
:10073C0003F0DCF849F6106304930594069404A9BD
:10074C00404603F0D3F843F23B33049305970694E9
:10075C00079504A9304603F0C9F844F20403049346
:10076C000594069404A9304603F0C0F809B0BDE81E
:10077C00F08300BF0010024000100140000801404F
:10078C00000C014072B6FEE700B585B00023019362
:10079C00029303930F48104A02608360037303753E
:1007AC004FF46022C26143600123036102F092FBAB
:1007BC0060B90023019301220292039301A9054819
:1007CC0002F002FA20B905B05DF804FBFFF7DAFF7E
:1007DC00FFF7D8FF340000200024014008B50A4878
:1007EC000A4B03600A4B436000238360C3604FF4E1
:1007FC008042026143618361C361036203F016FDB1
:10080C0000B908BDFFF7BEFF640000200054004093
:10081C00A086010010B596B0002412941394149481
:10082C0015941094119409940A940B940C940D94AF
:10083C000E940F942022214601A805F057FA2F4858
:10084C002F4B036040F2BF33436084604FF47A73E4
:10085C00C360046144618023836104F09FFC002821
:10086C003ED14FF48053129312A9244804F06AFB32
:10087C00002837D1214804F0C7FC002834D10023CC
:10088C001093119310A91D4804F06EFD00282DD172
:10089C006023099300220A920B920C920D920E92F5
:1008AC000F9209A9154804F0D9FA08BB082209A926
:1008BC00124804F0D3FAE8B900230193029303938E
:1008CC00049305934FF400520692089301A90B4828
:1008DC0004F080FD80B9094800F0A8FA16B010BDEC
:1008EC00FFF750FFFFF74EFFFFF74CFFFFF74AFFF4
:1008FC00FFF748FFFFF746FFFFF744FF0C0100200E
:10090C00002C014000B587B000230293039304939D
:10091C0005930093019315484FF08042026040F21A
:10092C00DF12426083604FF47A72C26003618023ED
:10093C00836104F033FC90B94FF48053029302A905
:10094C000A4804F0FFFA60B900230093019369464A
:10095C00064804F009FD30B907B05DF804FBFFF759
:10096C0011FFFFF70FFFFFF70DFF00BFC0010020C5
:10097C0000B58FB000230A930B930C930D9308933F
:10098C00099301930293039304930593069307939E
:10099C002348244A026040F2DF12426083604FF425
:1009AC007A72C26003618023836104F0F7FB58BB49
:1009BC004FF480530A930AA9194804F0C3FA28BBD0
:1009CC00174804F021FC18BB00230893099308A9CD
:1009DC00134804F0C9FCE8B9602301930022029289
:1009EC000392059201A90E4804F038FAA0B904222A
:1009FC000DEB02010A4804F031FA78B9084800F00E
:100A0C0015FA0FB05DF804FBFFF7BCFEFFF7BAFE5A
:100A1C00FFF7B8FEFFF7B6FEFFF7B4FEFFF7B2FE26
:100A2C00740200200004004000B587B0002302933C
:100A3C00039304930593009301931348134A0260A4
:100A4C002F22426083606422C26003618023836131
:100A5C0004F0A4FB90B94FF48053029302A90A4806
:100A6C0004F070FA60B900230093019369460648BC
:100A7C0004F07AFC30B907B05DF804FBFFF782FE96
:100A8C00FFF780FEFFF77EFE2803002000080040E1
:100A9C0008B50A480A4B03600A4B43600023836085
:100AAC00C3604FF48042026143618361C36103629E
:100ABC0003F0BCFB00B908BDFFF764FEB8000020D2
:100ACC0000580040A086010008B50A480A4B036094
:100ADC004FF41653436000238360C36003610C2200
:100AEC0042618361C36104F085FF00B908BDFFF763
:100AFC0049FE00BFDC0300200044004000B595B067
:100B0C00282200210DEB020005F0F0F800230593DC
:100B1C000693079308930993019302930393049309
:100B2C0002230A9301220E9210220F9211934FF47A
:100B3C00201313930AA802F0B1FAD0B90F2305932E
:100B4C0002230693002307934FF4806208920993C3
:100B5C00012105A802F0E2FC68B9022301934FF4CD
:100B6C008043039301A802F0B5FD30B915B05DF8D0
:100B7C0004FBFFF707FEFFF705FEFFF703FE00007F
:100B8C0008B502F051FAFFF7B9FFFFF785FDFFF743
:100B9C00FBFDFFF723FEFFF73DFEFFF7B3FEFFF76C
:100BAC00E7FEFFF741FFFFF773FFFFF78DFF114CD7
:100BBC00204603F0E7FF104803F0E4FF0F4D2846F2
:100BCC0003F0E0FF0E4803F0DDFF00F0DAF900213E
:100BDC00284604F033FA0421284604F02FFA0021A9
:100BEC00204604F02BFA0821204604F053FB00F0B9
:100BFC0047FAFCE70C010020C00100207402002021
:100C0C002803002010B504460368B3F1804F04D0CC
:100C1C002268054B9A4203D010BD00F085FAF7E725
:100C2C0000F0B6F9F8E700BF0008004082B00E4BA8
:100C3C009A6942F001029A619A6902F001020092EB
:100C4C00009ADA6942F08052DA61DB6903F0805372
:100C5C000193019B054A536823F0E06343F0007352
:100C6C00536002B0704700BF00100240000001400A
:100C7C0000B587B000230293039304930593026895
:100C8C00114B9A4202D007B05DF804FB03F56C439C
:100C9C009A6942F400729A619A6902F400720092A5
:100CAC00009A9A6942F004029A619B6903F004036A
:100CBC000193019B012302930323039302A903488D
:100CCC0002F014FEDFE700BF0024014000080140E1
:100CDC0010B588B00023049305930693079303681B
:100CEC00224A934204D0224A93421FD008B010BD2E
:100CFC00204CA36943F00803A361A36903F0080324
:100D0C000093009BC02304931223059303230793A2
:100D1C0004A9194802F0EAFDE36943F40013E36106
:100D2C00E36903F400130193019BDFE7114CA36902
:100D3C0043F00803A361A36903F008030293029B29
:100D4C004FF440630493122305930323079304A9E0
:100D5C00094802F0CBFDE36943F48003E361E369E6
:100D6C0003F480030393039BC0E700BF00540040CF
:100D7C000058004000100240000C014000B585B046
:100D8C000368264A93420BD0B3F1804F13D0244A08
:100D9C00934224D0234A93422CD005B05DF804FB37
:100DAC00214B9A6942F400629A619B6903F40063D7
:100DBC000093009BF1E703F50433DA6942F001027A
:100DCC00DA61DB6903F001030193019B002203212B
:100DDC001C2002F02BFF1C2002F060FFDDE7124B01
:100DEC00DA6942F00202DA61DB6903F00203029372
:100DFC00029BD2E70C4BDA6942F00402DA61DB6940
:100E0C0003F004030393039B002201211E2002F034
:100E1C000DFF1E2002F042FFBFE700BF002C014077
:100E2C0000040040000800400010024010B588B0DB
:100E3C00002304930593069307930368214A934276
:100E4C0004D0214A934228D008B010BD1F4B9A6998
:100E5C0042F008029A619A6902F008020192019A22
:100E6C009A6942F004029A619B6903F004030293AD
:100E7C00029B4FF40043049302240594079404A9A5
:100E8C00134802F033FD4FF48073049305940794D8
:100E9C0004A9104802F02AFDD6E70C4B9A6942F0DF
:100EAC0004029A619B6903F004030393039BC02320
:100EBC00049302230593079304A9064802F016FD38
:100ECC00C2E700BF002C01400004004000100240AB
:100EDC00000C01400008014030B587B0002302939C
:100EEC0003930493059302681B4B9A4201D007B0FD
:100EFC0030BD03F5E633DA6942F40032DA61DA69BF
:100F0C0002F400320092009A9A6942F004029A614B
:100F1C009B6903F004030193019B042302930223B6
:100F2C000393032305930D4D02A9284602F0DEFC22
:100F3C00082302930024039404940DEB0301284628
:100F4C0002F0D4FC22462146262002F06FFE262019
:100F5C0002F0A4FECBE700BF0044004000080140B3
:100F6C00704708B500F0FEF801F0CCFA08BD08B5E2
:100F7C0000F0D8FC00F0F4F901F09AF801F004FD4F
:100F8C0008BD08B501F042FA01F0DEFC08BD000016
:100F9C00024A136801331360704700BF50040020ED
:100FAC00014B1868704700BF5004002010B5044670
:100FBC00FFF7F6FF022C07D0032C08D0012C00D031
:100FCC0010BD044B1861FBE7024B9861F8E7014B2D
:100FDC001862F5E75004002010B50446FFF7E0FF57
:100FEC00022C0FD0032C10D0012C08D00023C31AD4
:100FFC00022C11D0032C13D0012C09D010BD0A4B9C
:10100C001B69F4E7084B9B69F1E7074B1B6AEEE79A
:10101C00054A53635061F1E7034A9363D061EDE7EE
:10102C00014AD3635062E9E75004002010B504462E
:10103C00FFF7B6FF022C0FD0032C10D0012C08D0D8
:10104C000023C31A022C11D0032C13D0012C09D06D
:10105C0010BD0A4B9B6AF4E7084BDB6AF1E7074BC0
:10106C001B6BEEE7054A13649062F1E7034A536485
:10107C00D062EDE7014A93641063E9E75004002065
:10108C0008B5104B93F85630012B09D00420FFF70C
:10109C008DFF0420FFF7A0FF0420FFF7C7FF08BD5A
:1010AC00084B094A1A66002283F856200320FFF7E2
:1010BC007DFFFFF756FF0320FFF78EFF0320FFF79E
:1010CC00B5FFECE7500400206F0F000808B5134B78
:1010DC005A6801325A60012183F85410104BA3FB5B
:1010EC0002135B09642101FB132333B90B4BDA6840
:1010FC000132DA60012283F85620084B094A9A65BE
:10110C00002283F854200120FFF750FF0120FFF745
:10111C0063FF0120FFF78AFF08BD00BF50040020C9
:10112C001F85EB516D0F000808B50C4B9A68013206
:10113C009A60012283F85520094ADA65002283F867
:10114C0055200220FFF732FFFFF711FF0220FFF7B7
:10115C0043FF0220FFF76AFF08BD00BF50040020C8
:10116C007B0F000810B5754B1A88013292B21A80A9
:10117C0073490B8801339BB20B80142A02D96F4A36
:10118C00002111800A2B02D96D4B00221A806D4B65
:10119C001B681BB96C4B1B78012B53D0694B1B681C
:1011AC001BB9694B1B78012B53D1664B1B681BB9C0
:1011BC00654B1B78022B53D0624B1B681BB9624BDF
:1011CC001B78022B52D1614B1A8840F6C3139A42FA
:1011DC006ED95B4B1B88042B4ED9594B1B88042BA7
:1011EC0058D8564B1B88092B07D8574B1B78012B0B
:1011FC006CD0554B1B78022B73D0504B1B88092B92
:10120C0007D9514B1B78012B75D04F4B1B78022BF8
:10121C007CD04F4B1B78123BDBB2012B40F2818010
:10122C00002220214B4802F07AFC4B4B1B781BB957
:10123C00454B1B78022B7AD000221021454802F036
:10124C006EFC10BD01224FF48071424802F067FC25
:10125C00A4E700224FF480713E4802F060FCA4E742
:10126C00012202213D4802F05AFCA5E7002202218E
:10127C003A4802F054FCA6E7364C01224FF4805158
:10128C00204602F04CFC00224FF40071204602F084
:10129C0046FCA2E72F4C00224FF48051204602F06E
:1012AC003EFC01224FF40071204602F038FC98E716
:1012BC00284C00224FF48051204602F030FC0022D2
:1012CC004FF40071204602F02AFC8AE71D4B1B6884
:1012DC00002B8ED001224FF480711E4802F01FFCAF
:1012EC0087E7184B1B68002B87D0012202211B4873
:1012FC0002F015FC81E7134B1B68002B85D00022F4
:10130C004FF48071134802F00AFC7EE70D4B1B680A
:10131C00002B3FF47EAF00220221104802F0FFFBAD
:10132C0077E7012220210B4802F0F9FB7DE701222F
:10133C001021084802F0F3FB83E700BFB40400203F
:10134C00B6040020DC040020D40400206C0700202C
:10135C0000000020000C0140C504002000080140E2
:10136C0038B5744B00221A80734C4FF480612046C0
:10137C0002F0CEFB714D28704FF40061204602F054
:10138C00C7FB6F4B18704FF48051204602F0C0FB26
:10139C006C4B18701021204602F0BAFB6A4B187087
:1013AC004FF48041694802F0B3FB694B18704FF45D
:1013BC000071204602F0ACFB664B18702B78012BA9
:1013CC0007D05F4B1B78012B03D05E4B1B78012B96
:1013DC003CD101224FF400515C4802F0A0FB574B6A
:1013EC001A78012A39D05C4B00211980554B18789A
:1013FC00012840D0594B00211980594B1978A1F183
:10140C001203DBB2012B16D9524B1B78012B3ED0A9
:10141C00012B4BD01BB9534C2478012C57D0012BEA
:10142C004DD0504C2370504B1C78504B1C70464B7D
:10143C001C784F4B1C704F4B1B78012B50D04E4BD4
:10144C001A703F4B1A784D4B1A7038BD00224FF46E
:10145C0000513E4802F063FBC1E73F490B88013362
:10146C009BB20B80632BC1D90B4600211980414BD9
:10147C0001211970BAE739490B8801339BB20B80F3
:10148C00632BBAD900230B803A490B70B5E7354C66
:10149C002478002CBCD10124394D2C70394D4FF0DF
:1014AC00000CA5F800C0304D2C70B3E7264C247806
:1014BC00002CAFD12E4C2478012CABD1EBE7224C75
:1014CC002478012CADD12A4C2478002CA9D12C4C99
:1014DC000125257000242B4D2C80234D2C70A0E76A
:1014EC00012A0DD0164B1B78012B16D00128A6D142
:1014FC00254B1B78002BA2D11E4B022119709EE7A5
:10150C001D4B1B78002BEDD10139C9B2144B19704E
:10151C00002994D11321197091E7184B1B78002BDB
:10152C00E4D10131C9B20E4B1970132987D90121AD
:10153C00197084E7C804002000080140BA04002098
:10154C00BC040020BE040020C2040020000C01409A
:10155C00C5040020B8040020C6040020CA040020E2
:10156C0000000020B9040020C0040020C1040020A9
:10157C00C3040020C4040020BB040020BD040020D0
:10158C00D5040020D6040020BF040020774B1B7824
:10159C00013B122B00F2E180DFE813F013001E0078
:1015AC00290034003E00480053005E0069007400BE
:1015BC007F008A0095009F00AA00B500C000CB00F8
:1015CC00D5006B4B5A221A806A4B4EF660221A6079
:1015DC00694B41221A807047654B5A221A80654B21
:1015EC0041F270721A60644B41221A807047604B52
:1015FC005A221A805F4B41F270721A605E4B0522C0
:10160C001A80704741235A4A13805A4A41F270712A
:10161C001160594A138070470523554A1380554A67
:10162C0041F270711160544A13807047504B5A222A
:10163C001A80504B41F270721A604F4B41221A8043
:10164C0070474B4B28221A804A4B44F250621A6066
:10165C00494B05221A807047454B5A221A80454B3C
:10166C0044F250621A60444B41221A807047404B3E
:10167C005A221A803F4B4EF660221A603E4B412292
:10168C001A8070473A4B5A221A803A4B42F6E06263
:10169C001A60394B41221A807047354B5A221A80F6
:1016AC00344B47F230521A60334B41221A80704748
:1016BC002F4B5A221A802F4B41F270721A602E4B0C
:1016CC0041221A8070472A4B50221A80294B2B4AF0
:1016DC001A60294B41221A807047254B5A221A80D6
:1016EC00244B42F6E0621A60234B41221A80704769
:1016FC001F4B5A221A801F4B47F230521A601E4B56
:10170C0041221A8070471A4B5A221A80194B42F602
:10171C00E0621A60184B28221A807047144B322250
:10172C001A80144B4EF660221A60134B0A221A8050
:10173C00704705230E4A13800E4A41F270711160F6
:10174C000D4A138070473C23094A1380094A41F221
:10175C0070711160084A138070470023044A13808B
:10176C00044A1360044A1380704700BF0000002035
:10177C00DA040020DC040020D8040020C0D40100CE
:10178C00014B9863704700BF00040040014B586345
:10179C00704700BF00040040014BD863704700BF86
:1017AC00002C0140014B5863704700BF002C0140D6
:1017BC0008B5524B1B78012B6BD0514BB3F9003051
:1017CC00504A1268002A0BDD4F49B1F90010081F6E
:1017DC00984205DC04318B4202DC4C490120087034
:1017EC004949B1F9001049480078012857D0474AB7
:1017FC001278022A5FD0CB1A002B60DD44490A888C
:10180C0001320A8043490A88013A0A80424A02217D
:10181C001170002B5FDD414A1388013B13803C4B58
:10182C00B3F90030B3F57A7F03DB394B4FF47A729E
:10183C001A80374BB3F90030002B53DD354BB3F91D
:10184C000030B3F57A7F03DB324B4FF47A721A8097
:10185C00304BB3F90030002B48DD304BB3F900307E
:10186C00B3F57A7F03DB2D4B4FF47A721A802B4B36
:10187C00B3F90030002B3DDD254B1888FFF786FFB0
:10188C00244B1888FFF77CFF244B1888FFF78AFF3E
:10189C0008BD00231D4A1370184A13708DE7013AD6
:1018AC0018480260002AA2DC024600201060174A89
:1018BC00022010709BE71A4AB2F900109BE71449FA
:1018CC000A88013A0A8013490A8801320A80124AAE
:1018DC00012111709DE7002BA1DA104A1388013306
:1018EC0013809CE70A4B00221A80A7E7094B0022C1
:1018FC001A80B2E7094B00221A80BDE7E1040020F0
:10190C00EE040020DC040020DA040020E0040020B7
:10191C00CE040020D0040020D4040020CC040020ED
:10192C00D804002010B5344B1B78022B09D1334B53
:10193C001B78012B2CD0324B1B78123BDBB2012BCA
:10194C0026D9304B01221A7000242F4B1C802F4BB0
:10195C001C602F4B1C802F4B1C802F4B1C80204657
:10196C00FFF70EFF2046FFF711FF2046FFF71AFF87
:10197C002A4B1C702A4B1B78012B13D01BB9294BFB
:10198C001B78012B25D0284B1888FFF705FF10BDBD
:10199C001C4B1B78012B02D0FFF70AFFEAE7FFF77D
:1019AC00F5FDF9E71F4A1278012AE7D11E4A7F217B
:1019BC0011801E490A88013292B20A80132ADDD99D
:1019CC000A4614211180002216490A7016490A8011
:1019DC00D4E7154B20221A80144A138801339BB28A
:1019EC001380132BCFD9134614221A8000230D4ACF
:1019FC0013700D4A1380C6E7C4040020B8040020FD
:101A0C0000000020E1040020DA040020DC040020A7
:101A1C00D8040020D0040020CE040020D4040020E0
:101A2C00C0040020D5040020D2040020D6040020DD
:101A3C0040F22A73984200F2398240F2267398429F
:101A4C0000F2398240F22273984200F2378240F25F
:101A5C001E73984200F2358240F21A73984200F2DB
:101A6C00338240F21673984200F2318240F21273C4
:101A7C00984200F22F8240F20E73984200F22D82AF
:101A8C0040F20A73984200F22B8240F2067398429D
:101A9C0000F2298240F20273984200F2278240F24F
:101AAC00FD63984200F2258240F2F963984200F2FD
:101ABC00228240F2F563984200F21F8240F2F163F9
:101ACC00984200F21C8240F2ED63984200F21982B7
:101ADC0040F2E963984200F2168240F2E5639842C4
:101AEC0000F2138240F2E163984200F2108240F25D
:101AFC00DD63984200F20D8240F2D963984200F205
:101B0C000A8240F2D363984200F2078240F2CD631E
:101B1C00984200F2048240F2C663984200F20182BD
:101B2C00B0F5D86F00F2FF8140F2BA63984200F230
:101B3C00FC8140F2B263984200F2F98140F2AD634D
:101B4C00984200F2F681B0F5D56F80F0F48140F246
:101B5C00A163984200F2F18140F29B63984200F23B
:101B6C00EE8140F29363984200F2EB8140F28C6379
:101B7C00984200F2E88140F28563984200F2E581D8
:101B8C0040F27E63984200F2E281B0F5CF6F80F0B4
:101B9C00E081B0F5CE6F00F2DE8140F269639842CD
:101BAC0000F2DB8140F26263984200F2D88140F28D
:101BBC005B63984200F2D58140F25463984200F284
:101BCC00D28140F24C63984200F2CF8140F24363E1
:101BDC00984200F2CC8140F23B63984200F2C981FA
:101BEC0040F23263984200F2C68140F22A63984276
:101BFC0000F2C38140F22263984200F2C08140F2AD
:101C0C001963984200F2BD8140F21163984200F2D0
:101C1C00BA81B0F5C16F00F2B881B0F5C06F00F2B7
:101C2C00B68140F2F653984200F2B38140F2EC5385
:101C3C00984200F2B08140F2E253984200F2AD813A
:101C4C00B0F5BB6F00F2AB8140F2CE53984200F27C
:101C5C00A88140F2C453984200F2A58140F2BA53D5
:101C6C00984200F2A281B0F5B66F00F2A08140F26A
:101C7C00A653984200F29D8140F29C53984200F288
:101C8C009A81B0F5B26F80F0988140F282539842FD
:101C9C0000F2958140F27553984200F29281B0F5B2
:101CAC00AD6F00F2908140F25B53984200F28D814F
:101CBC0040F24E53984200F28A8140F241539842CE
:101CCC0000F2878140F23453984200F28481B0F5DF
:101CDC00A56F80F0828140F21A53984200F27F8106
:101CEC0040F20D53984200F27C81B0F5A06F00F2E7
:101CFC007A8140F2F443984200F27781B0F59D6FFF
:101D0C0080F0758140F2DA43984200F2728140F221
:101D1C00CD43984200F26F81B0F5986F00F26D815F
:101D2C0040F2B443984200F26A81B0F5956F80F0AE
:101D3C00688140F29A43984200F2658140F28D43EB
:101D4C00984200F26281B0F5906F80F0608140F2B1
:101D5C007243984200F25D8140F26443984200F273
:101D6C005A81B0F58B6F80F0588140F24A4398420B
:101D7C0000F2558140F23C43984200F25281B0F59A
:101D8C00866F80F0508140F22143984200F24D81E1
:101D9C0040F21443984200F24A81B0F5816F80F012
:101DAC00488140F2FA33984200F24581B0F57B7FCE
:101DBC0000F24381B0F5787F80F0418140F2D2335C
:101DCC00984200F23E8140F2C533984200F23B81CA
:101DDC00B0F56E7F80F0398140F2AA33984200F260
:101DEC00368140F29D33984200F23381B0F5647F26
:101DFC0000F2318140F28233984200F22E8140F29F
:101E0C007533984200F22B81B0F55A7F00F229818C
:101E1C00B0F5577F80F0278140F24D33984200F2A5
:101E2C002481B0F5507F00F22281B0F54D7F80F017
:101E3C00208140F22633984200F21D81B0F5467F96
:101E4C0000F21B81B0F5437F80F0198140F2FE2334
:101E5C00984200F2168140F2F123984200F213816D
:101E6C00B0F5397F80F0118140F2D623984200F210
:101E7C000E8140F2C923984200F20B81B0F52F7FFE
:101E8C0000F2098140F2AE23984200F2068140F242
:101E9C00A123984200F20381B0F5257F00F2018165
:101EAC00B0F5227FC0F0FF806D2301E06FF00A03D4
:101EBC007E4A138070476FF00903F9E76FF008034F
:101ECC00F6E76FF00703F3E76FF00603F0E76FF048
:101EDC000503EDE76FF00403EAE76FF00303E7E7B0
:101EEC006FF00203E4E76FF00103E1E74FF0FF331B
:101EFC00DEE70023DCE70123DAE70223D8E703233C
:101F0C00D6E70423D4E70523D2E70623D0E707233B
:101F1C00CEE70823CCE70923CAE70A23C8E70B233B
:101F2C00C6E70C23C4E70D23C2E70E23C0E70F233B
:101F3C00BEE71023BCE71123BAE71223B8E713233B
:101F4C00B6E71423B4E71523B2E71623B0E717233B
:101F5C00AEE71823ACE71923AAE71A23A8E71B233B
:101F6C00A6E71C23A4E71D23A2E71E23A0E71F233B
:101F7C009EE720239CE721239AE7222398E723233B
:101F8C0096E7242394E7252392E7262390E727233B
:101F9C008EE728238CE729238AE72A2388E72B233B
:101FAC0086E72C2384E72D2382E72E2380E72F233B
:101FBC007EE730237CE731237AE7322378E733233B
:101FCC0076E7342374E7352372E7362370E737233B
:101FDC006EE738236CE739236AE73A2368E73B233B
:101FEC0066E73C2364E73D2362E73E2360E73F233B
:101FFC005EE740235CE741235AE7422358E743233B
:10200C0056E7442354E7452352E7462350E747233A
:10201C004EE748234CE749234AE74A2348E74B233A
:10202C0046E74C2344E74D2342E74E2340E74F233A
:10203C003EE750233CE751233AE7522338E753233A
:10204C0036E7542334E7552332E7562330E757233A
:10205C002EE758232CE759232AE75A2328E75B233A
:10206C0026E75C2324E75D2322E75E2320E75F233A
:10207C001EE760231CE761231AE7622318E763233A
:10208C0016E7642314E7652312E7662310E767233A
:10209C000EE768230CE769230AE76A2308E76B233A
:1020AC0006E76C2304E76E2302E700BFEE04002072
:1020BC0010B5444C204600F06DFE0A21204600F07D
:1020CC00BDFCB8B1404B00221A703E4C204600F0CB
:1020DC0061FE0A21204600F0B1FCA0B13B4B00226E
:1020EC001A70394B1B78012B16D0384B1B78012BEF
:1020FC0036D010BD204600F063FD354B1880324BB6
:10210C0001221A70E1E7204600F05AFD314B18808D
:10211C002E4B01221A70E4E72F4A13780133DBB2FD
:10212C0013702B4A10882D4A116808441060092B33
:10213C00DBD9B0FBF3F0FEF7C1F82949FEF716F92D
:10214C002849FEF7C7F9FEF787FA80B2264B1880AC
:10215C00FFF76EFC0023204A1370204A1360C4E77B
:10216C00224A13780133DBB213701A4A1088204AC2
:10217C00116808441060092BBBD9B0FBF3F0FEF7D3
:10218C009DF81C49FEF7F2F81649FEF7A3F9FEF785
:10219C0063FA80B2184B1880FEF790F81749FDF7D8
:1021AC00DBFF1749FEF796F91649FDF7D7FFFEF747
:1021BC002DFA154B188000230C4A13700C4A13602F
:1021CC0097E700BF34000020F2040020E604002052
:1021DC00F0040020E404002002000020F40400209D
:1021EC0000409C4500F07F45F804002001000020D1
:1021FC00E804002000404E45EC04002000003E4462
:10220C00000020400000C841E2040020002303E04D
:10221C00034A2021D1540133632BF9DD704700BFF1
:10222C0000070020014B188059807047FC040020E7
:10223C007F280FD81F290DD8012A0CD0CB0800EB12
:10224C00C31001F0070101238B40094A115C21EAFC
:10225C00030111547047CB0800EBC31001F00701C8
:10226C0001238B40024A115C19431154704700BF83
:10227C00000500202DE9F8439046234B1B880A7873
:10228C0013447F2B3CDC81460D461F4B5B884A7800
:10229C0013441F2B36DC002620E01B4B1888598872
:1022AC0031442044B8FA88F2520989B280B2FFF75F
:1022BC00BFFF01342B78A3420FD907FA04F313F4B0
:1022CC00004FEAD0104B18885988314420444246BC
:1022DC0089B280B2FFF7ACFFEBE701366B78B34203
:1022EC0006D96A6803FB096332F813700024E1E72E
:1022FC002B78054A11880B4413804846BDE8F883B7
:10230C000020FBE70020F9E7FC04002038B500248E
:10231C0015E02546631CC3EBC3037F2B12DCC4EB17
:10232C00C400002180B2FFF77DFF104B585D2038B0
:10233C0001220F49C0B2FFF79DFF0134E4B2442CD7
:10234C00E7D938BDFF2B08DCA4F11200C0EBC000AC
:10235C000A2180B2FFF766FFE7E7A4F12400C0EB87
:10236C00C000142180B2FFF75DFFDEE700070020FC
:10237C000400002000B585B000238DF80C308DF8DA
:10238C000D004FF47A730093022303AA78210348BB
:10239C0002F02AF805B05DF804FB00BF64000020D1
:1023AC0008B530B900214FF40072034803F09EFCCD
:1023BC0008BDFF21F7E700BF0005002010B584B071
:1023CC0000241BE0A4F15000C0B2FFF7D3FF0020A3
:1023DC00FFF7D0FF1020FFF7CDFF0A4B03EBC41320
:1023EC004FF47A72029280220192009301234022D0
:1023FC007821054802F0B4F80134E4B2072CE1D995
:10240C0004B010BD000500206400002038B5AE20DB
:10241C00FFF7B0FFA820FFF7ADFF1F20FFF7AAFFC3
:10242C00D320FFF7A7FF0020FFF7A4FF4020FFF702
:10243C00A1FFA120FFF79EFFC820FFF79BFF812083
:10244C00FFF798FF7F20FFF795FFA420FFF792FF7F
:10245C00A620FFF78FFFD520FFF78CFF8020FFF71A
:10246C0089FF8D20FFF786FF1420FFF783FF2E20B6
:10247C00FFF780FF2020FFF77DFF1020FFF77AFF8A
:10248C00DA20FFF777FF0220FFF774FFD920FFF760
:10249C0071FF2220FFF76EFFDB20FFF76BFF202080
:1024AC00FFF768FFB020FFF765FF0020FFF762FF22
:1024BC001020FFF75FFFAF20FFF75CFF0020FFF756
:1024CC006FFFFFF77BFFFFF7A1FE0C4DAC460C4CEA
:1024DC000FCCACE80F0094E80700ACE803002CF834
:1024EC00022B120C8CF800202846FDF729FE202325
:1024FC002B54FFF70BFFFFF761FF38BD00070020DF
:10250C00205D0008F8B5CB4B1B78022B49D0012B72
:10251C0000F0BA81FFF77AFEC74CA446C74D0FCD29
:10252C00ACE80F002B682CF8023B1B0C8CF800302D
:10253C002046FDF705FE83B22026265405339BB2B8
:10254C00E118BF4A1068E0509088937988808B71AD
:10255C002046FDF7F5FD85B22654BA4B1B78BA49D7
:10256C00A1FB0342D20802EB8202A3EB4202D2B2DD
:10257C00B64CA4FB03646409642606FB1433DBB27B
:10258C00A1FB0341C908092B40F2AA813031AA4BA7
:10259C001954013030321A54FFF7B8FEFFF70EFF12
:1025AC00F8BDFFF733FEA44CA94B93E8070084E871
:1025BC0007002046FDF7C4FD85B2A64B1988A34B36
:1025CC00A3FB01235B09A44AA2FB03625209C2EBE1
:1025DC000212A3EB82039BB29B4EA6FB032C4FEA89
:1025EC00DC0C0CEB8C02A3EB4203DBB21FFA8CFC71
:1025FC00A6FB0C72D20802EB8202ACEB420C5FFA27
:10260C008CFC964AA2FB0172D209A6FB0276F60854
:10261C0006EB8606A2EB4602D2B2914EA6FB0161F6
:10262C00890B30312154411C30326254821C3A21C6
:10263C00A154C21C0CF1300C04F802C0043030332D
:10264C002354EA1D92B2A618864B03CBA05071609E
:10265C001A889B783281B37205F10F0189B2824BD3
:10266C00B3F90030002BC0F2C38020247F4F87FBCE
:10267C000320DD17C5EBA00000EB8000A3EB4000AE
:10268C00C0B2724E86FB03C2C5EB62124FF0640CF3
:10269C000CFB123212B287FB02C7D217C2EBA70295
:1026AC00D2B2734F87FB03C7C5EBA7154FF47A77EC
:1026BC0007FB15331BB286FB0356DB17C3EB661304
:1026CC008D1C5D4E745513F0FF0340F09580CB1CB0
:1026DC002025F5540B1D3032F2544B1D3030F05484
:1026EC000631554D6A18634B18889B786852937065
:1026FC002846FDF725FD84B220222A54A31C9BB248
:10270C00EE185D490868E8508B88B380E31D9BB2D6
:10271C00EA544C4A12784C48A0FB0251C90801EB10
:10272C008101A2EB4101C9B2484DA5FB02656D09BF
:10273C00642606FB1522D2B2A0FB0250C008092A5F
:10274C0065D930303C4CE0545A1C3031A1549A1CA1
:10275C0092B2394C2025A55403339BB2E118474A59
:10276C001068E05013790B712046FDF7E9FC2554F5
:10277C00434B1B88344AA2FB0314E40804EB840487
:10278C00A3EB4404E4B2314DA5FB03614909642673
:10279C0006FB113189B2A2FB0121C1F3C701344EF2
:1027AC00A6FB037292094FF47A7707FB123292B2AE
:1027BC00A5FB0252C2F34712324DA5FB03756D0BFC
:1027CC0042F2107707FB15339BB2A6FB03539B0910
:1027DC0024D03033184D2B54431C3032EA54831C14
:1027EC003031E954033030342C54FFF78FFDD5E6EB
:1027FC005B421BB22D2439E7CD1C30330E4C635594
:10280C000B1D3032E2544B1D3030E05468E704F1BC
:10281C0008039BB23031084AD15498E7451C30323A
:10282C00054B5A55821C30319954033030341C54AA
:10283C00DBE700BFC404002000070020785D00081F
:10284C008C5D000800000020CDCCCCCC1F85EB515A
:10285C003C5D0008DC04002089888888F119760525
:10286C0073B2E745485D0008EE04002067666666B3
:10287C00D34D6210545D0008585D0008605D00087F
:10288C006C0700205917B7D1FFF7C0FC174C184B39
:10289C0025460FCB07C525F8023B1B0C2B70204699
:1028AC00FDF74EFC134B1B78134DA5FB0312D208FE
:1028BC0002EB8202A3EB4202D2B21049A1FB0361EC
:1028CC004909642606FB1133DBB2A5FB0313DB08B5
:1028DC0030332354013030322254FFF717FD5DE6BC
:1028EC000135ADB23032014B5A5555E60007002088
:1028FC00685D000800000020CDCCCCCC1F85EB51CE
:10290C0010B584B064230293082301930A4C0094FD
:10291C0001230222B421094801F0D4FE2278637805
:10292C0043EA0223064A1380A278E37843EA02239F
:10293C00044A138004B010BD64070020B8000020C6
:10294C006C0700207007002070B584B00C4CF42389
:10295C0023700C4D4FF47A76009601232246B42155
:10296C00284601F041FD10232370029601220192AA
:10297C0000941346B421284601F0F2FD04B070BD5A
:10298C006E070020B800002008B5FFF7B9FF08BD9E
:10299C0038B50268234B9A4200D038BD224B1B78C5
:1029AC00A3F13002D2B2092A08D9A3F16102D2B242
:1029BC00192A03D9413BDBB2192B2CD81B4DAC4641
:1029CC001B4C0FCCACE80F0094E80F00ACE80700F0
:1029DC002CF8023B1B0C8CF800302846FDF7B0FBA2
:1029EC00144C642382B22946204602F06FFE642305
:1029FC0001220D49204602F069FE0F4B1B682B800B
:102A0C001B0CAB702846FDF79BFB642382B2294656
:102A1C00204602F05BFE01220349064803F03FF812
:102A2C00BBE700BF0044004074070020D80700201B
:102A3C0000650008DC03002020650008F0B583B0B9
:102A4C0005460C460023019300F00CFB2B689A689A
:102A5C0012F4807F23D107465A6812F4807F03D189
:102A6C00DB6A13F4700F29D0504B1E68022000F063
:102A7C00BDFEB6FBF0F62B6819694D4A114236D1F2
:102A8C00D96802F15C42114231D11969494A1142AB
:102A9C0040D1DA68484B1A423ED0292041E0AB6A5B
:102AAC0043F02003AB62002385F82430012003B0EF
:102ABC00F0BD2B681B6813F0020F0FD02B681B683E
:102ACC0013F0020F4FD1B4F1FF3FF7D0002CF0D030
:102ADC0000F0C8FAC31BA342F0D9EAE7AB6A43F093
:102AEC000403AB62002385F824300320DFE7196967
:102AFC00304A114204D1D96802F16E4211420DD014
:102B0C0019692E4A0A405AB9DA682C4B13405BB14A
:102B1C00FC2006E0292004E0142002E0542000E010
:102B2C00FC2000FB06F607E05420FAE7019BB342B9
:102B3C0010D3019B01330193019BB34213D2B4F127
:102B4C00FF3FF6D0002CF1D000F08CFAC01BA04255
:102B5C00EFD9EBE7AB6A43F00403AB62002385F8D3
:102B6C0024300320A3E72B686FF012021A60AB6AC3
:102B7C0043F40073AB622B689B6803F46023B3F5DA
:102B8C00602F01D0002092E7287B60B9AB6A23F458
:102B9C008073AB62AB6A13F4805F88D1AB6A43F08D
:102BAC000103AB6283E7002081E700BF1400002023
:102BBC0024499224922449129224490049922400D7
:102BCC000368D86C7047000030B482B000220192C8
:102BDC0090F82420012A00F091800346012280F80D
:102BEC0024204A68062A2DD80468606B02EB820206
:102BFC00053A4FF01F0C0CFA02FC20EA0C000D6891
:102C0C0005FA02F2024362630A68092A3AD91C687F
:102C1C00E06802EB42021E3A4FF0070C0CFA02FC81
:102C2C0020EA0C008D6805FA02F20243E2600A68A1
:102C3C00103A012A36D90020002283F8242002B051
:102C4C0030BC70470C2A0ED80568286B02EB820248
:102C5C00233A1F24944020EA04000C6804FA02F280
:102C6C0002432A63D0E70568E86A02EB8202413A24
:102C7C001F24944020EA04000C6804FA02F2024378
:102C8C00EA62C1E71C68206902EB42024FF0070CB4
:102C9C000CFA02FC20EA0C008D6805FA02F20243E1
:102CAC002261C4E71A681648824205D09A6A42F03B
:102CBC0020029A620120BFE7906810F4000F1BD12C
:102CCC00906840F4000090600A68102A01D000203F
:102CDC00B2E70C4A12680C49A1FB0212920C02EBEF
:102CEC0082025200019202E0019A013A0192019A89
:102CFC00002AF9D100209FE700209DE702209EE7E3
:102D0C00002401401400002083DE1B4330B583B047
:102D1C000023019303689A6812F0010F33D1044623
:102D2C009A6842F001029A60184B1B68184AA2FB81
:102D3C0003239B0C019302E0019B013B0193019B3C
:102D4C00002BF9D100F08EF9054623689B6813F02F
:102D5C00010F16D100F086F9431B022BF5D923681D
:102D6C009B6813F0010FF0D1A36A43F01003A36228
:102D7C00E36A43F00103E362002384F8243001206A
:102D8C0002E0002000E0002003B030BD1400002061
:102D9C0083DE1B4390F82430012B68D010B5044619
:102DAC00012380F82430FFF7B1FF00285BD1A36A20
:102DBC0023F4407323F0010343F48073A36223686C
:102DCC002C4A934227D0A26A22F48012A2625A683B
:102DDC0012F4806F05D0A26A22F4405242F4805261
:102DEC00A262A26A12F4805F2BD0E26A22F0060281
:102DFC00E262002284F824206FF002021A60236839
:102E0C009A6802F46022B2F5602F1DD09A6842F4E1
:102E1C0080129A602AE0A2F58062526812F4702F38
:102E2C00D1D0A26A42F48012A262134A526812F400
:102E3C00806FD6D0A26A22F4405242F48052A26231
:102E4C00CFE70022E262D4E70A4A934204D09A68A0
:102E5C0042F4A0029A6009E0A2F58062526812F472
:102E6C00702FD3D1F3E7002384F8243010BD022057
:102E7C00704700BF002801400024014038B50368AA
:102E8C009A6812F0010F01D1002038BD04469A68EF
:102E9C0022F001029A6000F0E5F8054623689B6871
:102EAC0013F0010F13D000F0DDF8431B022BF5D902
:102EBC0023689B6813F0010FF0D0A36A43F0100352
:102ECC00A362E36A43F00103E3620120DDE7002023
:102EDC00DBE7000000287BD070B50446836A002B2A
:102EEC004DD02046FFF7CAFFA36A13F0100369D137
:102EFC00002867D1A26A22F4885222F0020242F022
:102F0C000202A2626268E1690A43217B42EA410241
:102F1C00A568B5F5807F02D0012D36D01D46267DE3
:102F2C00012E35D02668716821F4694129437160FE
:102F3C002568AE68274931401143A960A168B1F5F5
:102F4C00807F01D0012902D12369013B1B05256833
:102F5C00E96A21F470010B43EB62236899681E4BFC
:102F6C000B409A4225D0A36A23F0120343F01003BE
:102F7C00A362E36A43F00103E362012027E0C3622A
:102F8C0080F82430FDF774FEABE74FF48075C6E78C
:102F9C0031B9A169013945EA413141F40065C1E714
:102FAC00A16A41F02001A162E16A41F00101E162F4
:102FBC00B8E70023E362A36A23F0030343F00103A1
:102FCC00A36204E0A36A43F01003A362012070BD66
:102FDC0001207047FDF7E1FFFE0E1FFF10B5044600
:102FEC000E4B18784FF47A73B3FBF0F30C4A10685D
:102FFC00B0FBF3F000F060FE68B90F2C01D9012092
:10300C000AE0002221464FF0FF3000F00FFE054B86
:10301C001C60002000E0012010BD00BF0C0000204F
:10302C00140000201000002008B5074A136843F074
:10303C0010031360032000F0E7FD0220FFF7CEFF22
:10304C00FDF7F4FD002008BD00200240034A116882
:10305C00034B1B780B441360704700BF3C080020E7
:10306C000C000020014B1868704700BF3C08002082
:10307C0082B0084B1B68084AA2FB03235B0A00FBC7
:10308C0003F3019300BF019B5A1E0192002BF9D14F
:10309C0002B0704714000020D34D6210002800F0DD
:1030AC00F18170B582B00446036813F0010F2CD087
:1030BC00994B5B6803F00C03042B1DD0964B5B689B
:1030CC0003F00C03082B12D06368B3F5803F41D09A
:1030DC00002B55D103F1804303F504331A6822F415
:1030EC0080321A601A6822F480221A6037E08A4B08
:1030FC005B6813F4803FE7D0874B1B6813F4003FE9
:10310C0003D06368002B00F0BF81236813F0020F1B
:10311C0075D0814B5B6813F00C0F5FD07E4B5B68F6
:10312C0003F00C03082B54D02369002B00F08A8089
:10313C007A4B01221A60FFF795FF0546764B1B6808
:10314C0013F0020F75D1FFF78DFF401B0228F5D944
:10315C0003209EE1704A136843F480331360636864
:10316C0043B3FFF77FFF05466B4B1B6813F4003F1F
:10317C00CBD1FFF777FF401B6428F5D9032088E1FA
:10318C00B3F5A02F09D0644B1A6822F480321A6070
:10319C001A6822F480221A60E1E703F18043A3F558
:1031AC003C331A6842F480221A601A6842F4803266
:1031BC001A60D4E7FFF756FF0546574B1B6813F40C
:1031CC00003FA2D0FFF74EFF401B6428F5D9032027
:1031DC005FE1514B5B6813F4803FA5D14E4B1B68EC
:1031EC0013F0020F03D02369012B40F04F814A4AA0
:1031FC00136823F0F803616943EAC1031360236881
:10320C0013F0080F33D0A369002B5CD0434B012281
:10321C00C3F88024FFF726FF05463F4B5B6A13F08B
:10322C00020F21D1FFF71EFF401B0228F5D9032006
:10323C002FE1394A136823F0F803616943EAC103AB
:10324C001360DCE7354B00221A60FFF70BFF0546D5
:10325C00314B1B6813F0020FD1D0FFF703FF401B5B
:10326C000228F5D9032014E10120FFF701FF2368A0
:10327C0013F0040F00F09680274BDB6913F0805F8E
:10328C0034D1254BDA6942F08052DA61DB6903F004
:10329C0080530193019B0125214B1B6813F4807F04
:1032AC0026D0E368012B3DD0002B53D103F1804392
:1032BC0003F504331A6A22F001021A621A6A22F028
:1032CC0004021A6233E0154B0022C3F88024FFF786
:1032DC00C9FE0546104B5B6A13F0020FC7D0FFF70F
:1032EC00C1FE401B0228F5D90320D2E00025D3E70C
:1032FC000B4A136843F480731360FFF7B3FE064662
:10330C00074B1B6813F4807FCBD1FFF7ABFE801B00
:10331C006428F5D90320BCE00010024000004242B2
:10332C00007000405F4A136A43F001031362E368C4
:10333C0033B3FFF797FE06465A4B1B6A13F0020F86
:10334C002FD1FFF78FFE801B41F288339842F3D9BF
:10335C0003209EE0052B09D0524B1A6A22F0010281
:10336C001A621A6A22F004021A62E0E74D4B1A6ADA
:10337C0042F004021A621A6A42F001021A62D6E79B
:10338C00FFF770FE0646474B1B6A13F0020F08D07E
:10339C00FFF768FE801B41F288339842F3D9032073
:1033AC0077E0E5B9E369002B72D03E4A526802F02F
:1033BC000C02082A56D0022B17D03B4B00221A665F
:1033CC00FFF750FE0446374B1B6813F0007F47D0C5
:1033DC00FFF748FE001B0228F5D9032059E0314ABB
:1033EC00D36923F08053D361DCE72F4B00221A669C
:1033FC00FFF738FE05462B4B1B6813F0007F06D0F9
:10340C00FFF730FE401B0228F5D9032041E0236A68
:10341C00B3F5803F1AD023494B6823F47413226A06
:10342C00606A024313434B601F4B01221A66FFF77D
:10343C0019FE04461B4B1B6813F0007F0ED1FFF7DF
:10344C0011FE001B0228F5D9032022E0154A53680F
:10345C0023F40033A1680B435360DCE7002018E031
:10346C00002016E0012B16D00E4B5B6803F4803164
:10347C00226A914211D103F47013626A93420ED105
:10348C00002006E001207047012002E0012000E04E
:10349C00002002B070BD0120FBE70120F9E70120FC
:1034AC00F7E700BF001002400000424286B0174B05
:1034BC000FCB0DF1180C0CE90F0040F20123ADF805
:1034CC000430134B5B6803F00C02082A02D011483D
:1034DC0006B07047C3F3834218326A4412F8100CDA
:1034EC0013F4803F0DD00A4B5B68C3F34043183391
:1034FC006B4413F8143C074A02FB00F0B0FBF3F0EA
:10350C00E6E7054B03FB00F0E2E700BF246500088B
:10351C000010024000127A0000093D00002800F063
:10352C00A08070B50D460446524B1B6803F0070390
:10353C008B420BD24F4A136823F007030B431360E3
:10354C00136803F007038B4240F08D80236813F05F
:10355C00020F17D013F0040F04D0474A536843F4FA
:10356C00E0635360236813F0080F04D0424A536899
:10357C0043F460535360404A536823F0F003A1684E
:10358C000B435360236813F0010F31D06368012B98
:10359C0020D0022B25D0384A126812F0020F64D0CA
:1035AC0035494A6822F0030213434B60FFF75AFD7A
:1035BC000646314B5B6803F00C036268B3EB820F79
:1035CC0016D0FFF74FFD801B41F288339842F0D99B
:1035DC00032045E0284A126812F4003FE0D1012094
:1035EC003EE0254A126812F0007FD9D1012037E065
:1035FC00204B1B6803F00703AB420AD91D4A136822
:10360C0023F007032B431360136803F00703AB424B
:10361C002DD1236813F0040F06D0174A536823F4F6
:10362C00E063E1680B435360236813F0080F07D085
:10363C00114A536823F46053216943EAC103536070
:10364C00FFF734FF0C4B5B68C3F303130B4AD35CDB
:10365C00D8400B4B18600B4B1868FFF7BFFC0020D1
:10366C0070BD012070470120FAE70120F8E7012026
:10367C00F6E700BF00200240001002403865000849
:10368C001400002010000020014B1868704700BF88
:10369C001400002008B5FFF7F7FF044B5B68C3F379
:1036AC000223034AD35CD84008BD00BF001002407F
:1036BC004865000808B5FFF7E7FF044B5B68C3F3E8
:1036CC00C223034AD35CD84008BD00BF001002409F
:1036DC004865000870B582B00446036813F0010F0A
:1036EC0036D03F4BDB6913F0805F49D13C4BDA6934
:1036FC0042F08052DA61DB6903F080530193019B45
:10370C000125384B1B6813F4807F3BD0344B1B6A6C
:10371C0013F4407313D0626802F440729A420ED0D4
:10372C002F4A136A23F440702F490126C1F84064D4
:10373C000026C1F84064106213F0010F36D1284AFC
:10374C00136A23F4407361680B431362002D3ED15E
:10375C00236813F0020F06D0214A536823F4404328
:10376C00A1680B435360236813F0100F34D01C4A2C
:10377C00536823F48003E1680B43536000202CE072
:10378C000025BEE7174A136843F480731360FFF7F4
:10379C0069FC0646134B1B6813F4807FB6D1FFF708
:1037AC0061FC801B6428F5D9032016E0FFF75AFC56
:1037BC0006460B4B1B6A13F0020FC0D1FFF752FCED
:1037CC00801B41F288339842F3D9032005E0D3697A
:1037DC0023F08053D361BBE7002002B070BD00BF63
:1037EC0000100240007000400000424200B587B05B
:1037FC008446394B0FCB0DF1180E0EE90F0040F239
:10380C000123ADF80430BCF1020F56D0BCF1100FFF
:10381C0006D0BCF1010F2ED0002007B05DF804FBE0
:10382C002E4B5A68186810F08070F6D0C2F38343A0
:10383C0018336B4413F8100C12F4803F17D0274B3D
:10384C005B68C3F3404318336B4413F8142C244BBC
:10385C00B3FBF2F303FB00F0204B5B6813F4800F17
:10386C00DBD140001F4BA3FB00304008D5E71E4BBB
:10387C0003FB00F0F0E7194B1B6A40F202321A40CE
:10388C00B2F5817F24D003F44073B3F5007F04D0EC
:10389C00B3F5407F09D00020BFE7104A526A12F0FE
:1038AC00020FF5D049F64040B7E70C4B186810F4FE
:1038BC000030B2D04FF22440AFE7FFF7FBFE074BCE
:1038CC005B68C3F3813301335B00B0FBF3F0A4E717
:1038DC004FF40040A1E700BF24650008001002402F
:1038EC0000127A00ABAAAAAA00093D0070B582B0FA
:1038FC000024A446A6E0804DAA4210D007D97F4DE3
:10390C00AA420CD005F58035AA4208D013E0A5F5E3
:10391C008015AA4203D005F57025AA4207D18A6802
:10392C00002A58D0012A51D04361082403E0A5F5A0
:10393C008015AA42F3D0BEF1FF0F4ED80646BEF159
:10394C00FF0F4CD84FEA8C0233680F25954023EAC1
:10395C00050304FA02F2134333604B6813F0805FE3
:10396C006ED0674B9A6942F001029A619B6903F031
:10397C0001030193019B4FEA9C02951C614B53F888
:10398C0025600CF003039D000F23AB4026EA0306D1
:10399C005D4B984229D003F58063984200F08E80ED
:1039AC0003F58063984200F08B8003F580639842A6
:1039BC0019D004231AE0CC68BDE7CC680434BAE70C
:1039CC00CC680834B7E7CC680C34B4E7036108243E
:1039DC00B1E70024AFE70424ADE7061DAFE7ACF177
:1039EC0008029200B0E7032300E00023AB4033430E
:1039FC000232444D45F822304B6813F4803F61D0BD
:103A0C00424A136843EA0E0313604B6813F4003FF9
:103A1C005ED03E4A536843EA0E0353604B6813F47E
:103A2C00801F5BD0394A936843EA0E0393604B685E
:103A3C0013F4001F58D0354AD36843EA0E03D36001
:103A4C000CF1010C0A6832FA0CF353D0012303FA7F
:103A5C000CF302EA030E33EA0202F1D14A68122A8D
:103A6C003FF649AF122A3FF666AF01A555F822F092
:103A7C002B390008C3390008CD390008DF3900089C
:103A8C00433900084339000843390008433900081A
:103A9C00433900084339000843390008433900080A
:103AAC0043390008433900084339000843390008FA
:103ABC0043390008C7390008D3390008012395E7BA
:103ACC00022393E7114A136823EA0E0313609CE761
:103ADC000E4A536823EA0E0353609FE70B4A936820
:103AEC0023EA0E039360A2E7084AD36823EA0E0385
:103AFC00D360A5E702B070BD0000221000003110A9
:103B0C000010024000000140000801400004014088
:103B1C008368194201D001207047002070470AB118
:103B2C000161704709040161704790F82130022B44
:103B3C0006D004238363002380F8203001207047D3
:103B4C000268136823F00E0313600268136823F0F5
:103B5C0001031360036CC16B012202FA03F34B6087
:103B6C0080F82120002380F8203018467047000090
:103B7C0008B590F82130022B03D004238363012075
:103B8C0008BD0268136823F00E0313600268136803
:103B9C0023F0010313600368194A934214D01432C2
:103BAC0093421FD0143293421ED0143293421ED033
:103BBC00143293421ED01432934202D04FF08072D2
:103BCC0003E04FF4801200E001220E4B5A600123F7
:103BDC0080F82130002380F82030436B6BB198477C
:103BEC000020CDE71022F0E74FF48072EDE74FF4A0
:103BFC008052EAE74FF48032E7E70020C0E700BFCD
:103C0C000800024000000240074AD36823F4E06336
:103C1C001B041B0C000200F4E060034343F0BF6381
:103C2C0043F40033D360704700ED00E000B5194B4E
:103C3C00DB68C3F30223C3F1070CBCF1040F28BFEC
:103C4C004FF0040C03F1040EBEF1060F18D9033B20
:103C5C004FF0FF3E0EFA0CFC21EA0C0199400EFAD3
:103C6C0003F322EA0303194300280BDB0901C9B251
:103C7C0000F1604000F5614080F800135DF804FB32
:103C8C000023E5E700F00F000901C9B2024B1954FB
:103C9C00F4E700BF00ED00E014ED00E0002807DBC6
:103CAC0000F01F02400901239340024A42F82030E1
:103CBC00704700BF00E100E00138B0F1807F0BD20B
:103CCC004FF0E0235861054AF02182F823100020C0
:103CDC00986107221A6170470120704700ED00E0DF
:103CEC0003685A6912F4806F01D1002070476FF499
:103CFC0080625A6100230363202280F83D2080F803
:103D0C003E30026C42F00402026480F83C30012028
:103D1C0070472DE9F04107460D4690461E4624E0BB
:103D2C00FFF7A0F9069BC01AB04200D8EEB90023E9
:103D3C003B63202287F83D2087F83E303A6C42F0F6
:103D4C0020023A6487F83C3001201EE03B689C69F5
:103D5C0025EA040C1FFA8CFCBCFA8CFC4FEA5C1CA8
:103D6C00E04511D1B6F1FF3FDAD1C5F30743012B82
:103D7C00ECD13B685B6925EA030C1FFA8CFCBCFA9E
:103D8C008CFC4FEA5C1CEBE70020BDE8F0812DE9D0
:103D9C00F04105460E46174698463DE01A6842F437
:103DAC0000721A602B686FF480625A6100232B63D7
:103DBC00202285F83D2085F83E302A6C42F0040222
:103DCC002A6485F83C30012034E0FFF74BF9A0EB76
:103DDC000800B84200D8FFB900232B63202285F8D5
:103DEC003D2085F83E302A6C42F020022A6485F88A
:103DFC003C3001201EE02B689C6926EA0404A4B226
:103E0C00003C18BF0124A4B12B685A6912F4806FCE
:103E1C00C4D1B7F1FF3FD8D1C6F30743012BEAD188
:103E2C002B685C6926EA0404A4B2003C18BF012488
:103E3C00E9E70020BDE8F081F0B583B004460D46FB
:103E4C0016461F46C36A082B0DD0012B0BD013F559
:103E5C00803F08D0036B122B0AD10268136843F41D
:103E6C008073136004E02268136843F4807313605A
:103E7C000097334600224FF001112046FFF749FF0F
:103E8C0080B92369B3F5804F16D1236805F0FE0580
:103E9C001D613B46324613492046FFF778FFF8B9BF
:103EAC0003B0F0BD23681B6813F4807F02D04FF47D
:103EBC00007323640320F3E7EB11226803F006037D
:103ECC0043F0F00313613B46324607492046FFF7A7
:103EDC005EFF18B92368EDB21D61DAE70120DFE758
:103EEC000120DDE7020001000800010070B5044666
:103EFC000D46164623685B6913F0800F1CD12046D3
:103F0C00FFF7EEFED0B9B5F1FF3FF3D0FFF7AAF8FB
:103F1C00801BA84201D8002DECD100232363202262
:103F2C0084F83D2084F83E30226C42F0200222645A
:103F3C0084F83C30012000E0002070BD0120FCE73B
:103F4C002DE9F04385B004460D4691461F46DDF839
:103F5C0030800D9E0368196841F4807119600096D9
:103F6C00434600224FF00111FFF7D3FE60B92368DE
:103F7C0005F0FE051D613346424626492046FFF7F3
:103F8C0006FF68B1012008E023681B6813F4807FEA
:103F9C0002D04FF400732364032005B0BDE8F08316
:103FAC000023039323685A6903929B690393039B31
:103FBC00324641462046FFF799FF30B9012F0FD109
:103FCC0023685FFA89F61E61E7E7236C042B01D0A6
:103FDC000120E2E72268136843F400731360F7E7EB
:103FEC0023684FEA19221A61324641462046FFF7F0
:103FFC007DFF20B923685FFA89F61E61CDE7236C3B
:10400C00042B01D00120C8E72268136843F4007325
:10401C001360F7E7020001002DE9F04784B0044675
:10402C000D46164699460C9FDDF8348002681368DD
:10403C0043F4806313600368196841F4807119605C
:10404C00CDF800803B4600224FF00111FFF761FED6
:10405C0070B95FFA85FA236805F0FE051D614346C9
:10406C003A4641492046FFF792FE68B1012008E02C
:10407C0023681B6813F4807F02D04FF40073236411
:10408C00032004B0BDE8F0870023039323685A692A
:10409C0003929B690393039B424639462046FFF7E4
:1040AC0025FF80B9B9F1010F18D12368F6B21E6152
:1040BC00424639462046FFF719FF68B3236C042BA0
:1040CC0024D00120DDE7236C042B01D00120D8E79C
:1040DC002268136843F400731360F7E72368320A0D
:1040EC001A61424639462046FFF700FF18B923688B
:1040FC00F6B21E61DCE7236C042B01D00120C0E773
:10410C002268136843F400731360F7E7226813689E
:10411C0043F400731360D4E72268136843F480738C
:10412C001360CDF800803B4600224FF00111204671
:10413C00FFF7EFFD68B922684AF0010313614346AB
:10414C003A4609492046FFF722FE002899D0012063
:10415C0097E723681B6813F4807F02D04FF4007339
:10416C00236403208DE700BF0200010070B50446F4
:10417C000D46164623685B6913F0040F1CD12046CC
:10418C00FFF7AEFDD0B9B5F1FF3FF3D0FEF76AFFF4
:10419C00801BA84201D8002DECD1002323632022E0
:1041AC0084F83D2084F83E30226C42F020022264D8
:1041BC0084F83C30012000E0002070BD0120FCE7B9
:1041CC0070B505460C4616462B68596911F0400F20
:1041DC0029D1596911F0100F15D1FEF743FF801B3F
:1041EC00A04201D8002CEFD100232B63202285F8AC
:1041FC003D2085F83E302A6C42F020022A6485F876
:10420C003C30012070BD6FF010025A6100232B630B
:10421C00202285F83D2085F83E302A6C2A6485F8EA
:10422C003C300120EEE70020ECE70000002800F015
:10423C00CC8070B5044690F83D30002B77D0242309
:10424C0084F83D302268136823F001031360226860
:10425C00136843F4004313602268136823F400438B
:10426C001360FFF717FA62685A4B9A4264D85A4B9C
:10427C0098428CBF00230123002B40F0A8805749A3
:10428C00A1FB00318B0C25686A6822F03F0242EAE0
:10429C0091426A6021680A6A22F03F0266684D4DBD
:1042AC00AE424FD8013313430B622168CA6922F422
:1042BC004F4222F0FF026668464B9E424CD8431E8A
:1042CC007600B3FBF6F3013340F6FC70034278D072
:1042DC00C3F30B031343CB6121680B6823F0C003BA
:1042EC00E269206A024313430B6021688B6823F454
:1042FC00034323F0FF032269E068024313438B60FE
:10430C002168CB6823F0FF036269A0690243134361
:10431C00CB602268136843F0010313600020206413
:10432C00202384F83D30206384F83E0070BD80F873
:10433C003C30FCF7CDFC82E7294B98428CBF002324
:10434C00012399E74FF4967505FB03F3254DA5FB67
:10435C0003539B090133A6E7A368BBB9451E06EBC3
:10436C00460CB5FBFCF50135C5F30B05B5FA85F527
:10437C006D0945BBC3B9013806EB4603B0FBF3F33B
:10438C000133C3F30B0343F40043A3E7451E06EBD1
:10439C00860C0CEB8C0CB5FBFCF50135C5F30B0551
:1043AC00B5FA85F56D09E4E7013806EB860303EBF6
:1043BC008303B0FBF3F30133C3F30B0343F4404328
:1043CC0088E7042386E7012384E701207047012056
:1043DC00ACE700BFA08601007F841E0083DE1B4378
:1043EC00FF083D00D34D62102DE9F04385B0044623
:1043FC000F46914698460C9EFEF734FE054694F8FF
:10440C003D00C0B2202804D00227384605B0BDE8D4
:10441C00F0830095192301224F492046FFF779FCC0
:10442C00002840F0928094F83C30012B00F08F80F3
:10443C00012384F83C3023681A6812F0010F03D171
:10444C001A6842F001021A602268136823F40063B0
:10445C001360212384F83D30102384F83E30002370
:10446C002364C4F82490A4F82A80638D23853B4BE5
:10447C00E3622B46324639462046FFF7DDFC074601
:10448C00002866D10023039323685A6903929B6921
:10449C000393039B11E0236C042B01D00127B4E799
:1044AC002268136843F400731360F7E72A46314619
:1044BC002046FFF75BFE00282ED1238D002B36D033
:1044CC002A4631462046FFF711FD0028E3D1626AE7
:1044DC00236812781A61606A431C6362618D89B229
:1044EC00013989B26185238D013B9BB223852268FA
:1044FC00516911F0040FD9D0002BD7D04378136138
:10450C00636A01336362638D9BB2013B9BB263852B
:10451C00238D013B2385C9E7236C042B01D0012794
:10452C0073E72268136843F400731360F7E722689B
:10453C00136843F400731360202384F83D30002388
:10454C0084F83E3084F83C305FE702275DE70227B1
:10455C005BE7012759E700BF020010000000FFFFD6
:10456C002DE9F04383B004460F46904699460C9EC5
:10457C00FEF778FD054694F83D00C0B2202803D024
:10458C00022003B0BDE8F0830095192301224B49AA
:10459C002046FFF7BEFB002840F0898094F83C30A1
:1045AC00012B00F08680012384F83C3023681A68C4
:1045BC0012F0010F03D11A6842F001021A6022684E
:1045CC00136823F400631360212384F83D304023E7
:1045DC0084F83E30002323640A9B6362BDF82C30C0
:1045EC006385638D2385364BE362019500964B46BC
:1045FC00424639462046FFF7A3FC00285BD1238DA9
:10460C00002B35D02A4631462046FFF76FFC20BBE5
:10461C00626A236812781A61626A531C6362218D84
:10462C00013989B22185638D9BB2013B9BB26385B5
:10463C002368586910F0040FE1D00029DFD05278BC
:10464C001A61636A01336362238D013B2385638D99
:10465C009BB2013B9BB26385D1E7236C042B01D049
:10466C0001208EE72268136843F400731360F7E7A8
:10467C002A4631462046FFF779FD50B1236C042BB6
:10468C0001D001207DE72268136843F400731360A6
:10469C00F7E72268136843F400731360202384F84F
:1046AC003D30002384F83E3084F83C3069E702202A
:1046BC0067E7022065E7012063E700BF02001000F6
:1046CC000000FFFF2DE9F04389B004460F469046E9
:1046DC009946129E00230793FEF7C4FC054694F8F6
:1046EC003D00C0B2202804D00227384609B0BDE8EE
:1046FC00F08300951923012281492046FFF709FB1D
:10470C00002840F0728194F83C30012B00F06F814E
:10471C00012384F83C3023681A6812F0010F03D18E
:10472C001A6842F001021A602268136823F40063CD
:10473C001360222384F83D30402384F83E3000235C
:10474C002364109B6362BDF844306385638D2385BD
:10475C006C4BE362019500964B4642463946204627
:10476C00FFF75AFC0746002840F04381238D5BB9C4
:10477C00039323685A6903929A690392039A1A68FD
:10478C0042F400721A60EDE0012B0FD0022B21D005
:10479C002268136843F48063136000230693236834
:1047AC005A6906929B690693069BDBE022681368A4
:1047BC0023F48063136072B60023049323685A6950
:1047CC0004929A690492049A1A6842F400721A606C
:1047DC0062B6C7E02268136843F40063136072B6D4
:1047EC000023059323685A6905929A690592059AE4
:1047FC001A6822F480621A6062B6B3E02A46314627
:10480C002046FFF7DDFC002840F0F58023681A698C
:10481C00636A1A70636A01336362238D013B2385DB
:10482C00638D9BB2013B9BB263859BE00095334645
:10483C00002235492046FFF76CFA002840F0DF8053
:10484C002268136823F48063136072B623681A69B4
:10485C00636A1A70636A01336362238D013B23859B
:10486C00638D9BB2013B9BB26385284B1B68DB08B5
:10487C00274AA2FB03231B0A03EB8303C3EBC303EB
:10488C000793079B013B0793079B002B28D02368BA
:10489C005A6912F0040FF4D01A6842F400721A60CC
:1048AC0023681A69636A1A70636A01336362238D21
:1048BC00013B2385638D9BB2013B9BB2638562B642
:1048CC0023681A69636A1A70636A01336362238D01
:1048DC00013B2385638D9BB2013B9BB2638541E019
:1048EC002363202284F83D2084F83E30226C42F071
:1048FC002002226462B684F83C300127F5E600BF42
:10490C00020010000000FFFF040001001400002052
:10491C0089B5F8142A4631462046FFF751FC002889
:10492C006FD123681A69636A1A70626A531C6362D6
:10493C00238D013B2385638D9BB2013B9BB2638529
:10494C002368596911F0040F0CD01B695370636A0A
:10495C0001336362238D013B2385638D9BB2013B45
:10496C009BB26385238D002B36D0032BD2D8012B21
:10497C003FF444AF022B7FF459AF0095334600222D
:10498C0021492046FFF7C5F9002836D172B62268B6
:10499C00136843F40073136023681A69636A1A700E
:1049AC00636A01336362238D013B2385638D9BB264
:1049BC00013B9BB2638562B623681A69636A1A70FD
:1049CC00636A01336362238D013B2385638D9BB244
:1049DC00013B9BB26385C5E7202384F83D3000235F
:1049EC0084F83E3084F83C307FE602277DE60227CF
:1049FC007BE6012779E6012777E6012775E6012793
:104A0C0073E6012771E600BF040001007047704790
:104A1C0070477047704770477047704770477047D2
:104A2C0070B4036A23F001030362036A4668826967
:104A3C0022F073020C6844EA020523F002028B6830
:104A4C0013430D4CA04209D00B4CA0420DD0466034
:104A5C0085614A684263036270BC704723F00803A7
:104A6C00CA68134323F00403EEE726F440764A6940
:104A7C0032438E691643EAE7002C014030B4036AD6
:104A8C0023F480730362036A4568C26922F07302DF
:104A9C000C68224323F400738C6843EA04230F4C04
:104AAC00A04209D00D4CA0420ED04560C2614A68AC
:104ABC00C263036230BC704723F40063CC6843EAE2
:104ACC00042323F48063EDE725F440554C6945EA53
:104ADC0004158C6945EA0415E7E700BF002C01407A
:104AEC0030B4036A23F480530362036A4468C269D6
:104AFC0022F4E6420D6842EA052223F400538D6845
:104B0C0043EA0533074DA84206D04460C2614A68A7
:104B1C000264036230BC704724F480444D6944EA5B
:104B2C008514F2E7002C014010B4036A046A24F0E7
:104B3C0001040462846924F0F00C4CEA021223F0A4
:104B4C000A030B438261036210BC704710B4046A01
:104B5C0024F0100404628469036A24F4704C4CEA57
:104B6C00023223F0A00343EA01138261036210BCFA
:104B7C007047836823F070030B4343F00703836093
:104B8C007047000090F83D30DBB2012B27D1022397
:104B9C0080F83D300268D36843F00103D3600368AA
:104BAC00114A934210D0B3F1804F0DD0A2F594323C
:104BBC00934209D002F58062934205D01A6842F004
:104BCC0001021A60002070479A6802F00702062A58
:104BDC0007D01A6842F001021A60002070470120C9
:104BEC0070470020704700BF002C014010B50446F0
:104BFC0003681A6912F0020F13D0DA6812F0020F70
:104C0C000FD06FF002021A610123037703689B69CE
:104C1C0013F0030F00F09280D0F8903098470023E7
:104C2C00237723681A6912F0040F14D0DA6812F093
:104C3C00040F10D06FF004021A610223237723684B
:104C4C009B6913F4407F00F08180D4F890302046AB
:104C5C0098470023237723681A6912F0080F13D0A2
:104C6C00DA6812F0080F0FD06FF008021A610423F3
:104C7C0023772368DB6913F0030F70D0D4F89030DE
:104C8C00204698470023237723681A6912F0100FE7
:104C9C0013D0DA6812F0100F0FD06FF010021A61F7
:104CAC00082323772368DB6913F4407F60D0D4F8A2
:104CBC009030204698470023237723681A6912F016
:104CCC00010F0AD0DA6812F0010F06D06FF0010262
:104CDC001A61D4F880302046984723681A6912F07C
:104CEC00800F0AD0DA6812F0800F06D06FF08002C5
:104CFC001A61D4F8B0302046984723681A6912F02C
:104D0C00400F0AD0DA6812F0400F06D06FF0400264
:104D1C001A61D4F888302046984723681A6912F033
:104D2C00200F0AD0DA6812F0200F06D06FF02002A4
:104D3C001A61D4F8A8302046984710BDD0F89830A6
:104D4C009847D4F89C302046984768E7D4F89830B8
:104D5C0020469847D4F89C302046984779E7D4F8F9
:104D6C00983020469847D4F89C302046984789E7DD
:104D7C00D4F8983020469847D4F89C302046984771
:104D8C0099E7000003681B4A90420AD0B0F1804FAB
:104D9C0007D0A2F59432904203D002F58062904283
:104DAC0003D123F070034A681343124A90420AD08D
:104DBC00B0F1804F07D0A2F59432904203D002F5A7
:104DCC008062904203D123F44073CA68134323F0EA
:104DDC0080034A69134303608B68C3620B68836268
:104DEC00044B984202D00123436170470B69036363
:104DFC00F9E700BF002C014030B4036A23F0100324
:104E0C000362036A4468826922F4E6420D6842EA4E
:104E1C00052223F020038D6843EA05130E4DA842AA
:104E2C0009D00D4DA8420ED0446082614A6882635D
:104E3C00036230BC704723F08003CD6843EA05134E
:104E4C0023F04003EDE724F440644D6944EA850403
:104E5C008D6944EA8504E7E7002C014038B590F8E9
:104E6C003C30012B60D004460D46012380F83C30C9
:104E7C000C2A1AD8DFE802F0071919191D1919198B
:104E8C003119191944000068FFF7CAFD22689369AB
:104E9C0043F0080393612268936923F00403936140
:104EAC002268936929690B439361002084F83C00C4
:104EBC0038BD0068FFF7A0FF2268936943F40063D4
:104ECC0093612268936923F48063936122689369E8
:104EDC00296943EA01239361E7E70068FFF7CEFDF8
:104EEC002268D36943F00803D3612268D36923F0A5
:104EFC000403D3612268D36929690B43D361D4E7D6
:104F0C000068FFF7EDFD2268D36943F40063D361B9
:104F1C002268D36923F48063D3612268D369296939
:104F2C0043EA0123D361C0E70220C1E710B48468CF
:104F3C0024F47F4C42EA03220A4342EA0C028260C8
:104F4C0010BC704790F83C30012B66D010B504466D
:104F5C00012380F83C30022380F83D3002689368CE
:104F6C0023F47F4323F0770393600B68602B40D0CE
:104F7C0022D8402B47D00BD9502B0ED1CA68496888
:104F8C000068FFF7D1FD50212068FFF7F2FD04E027
:104F9C00202B0CD008D9302B09D0012384F83D30BC
:104FAC00002084F83C0010BD0BB1102BF5D1194634
:104FBC002068FFF7DEFDF0E7702B0ED0B3F5005F35
:104FCC00EBD1CB684A6889680068FFF7AFFF2268AD
:104FDC00936843F480439360DFE7CB684A68896841
:104FEC000068FFF7A3FF2268936843F07703936090
:104FFC00D3E7CA6849680068FFF7A8FD60212068FC
:10500C00FFF7B7FDC9E7CA6849680068FFF78CFD70
:10501C0040212068FFF7ADFDBFE70220704701F08B
:10502C001F01012303FA01FC036A23EA0C03036248
:10503C00036A02FA01F10B430362704710B5044690
:10504C00084651BB94F83E30DBB2013B18BF01233C
:10505C00002B5BD1002839D1022384F83E30012289
:10506C0001462068FFF7DBFF23682A4A93423DD0B4
:10507C002368284A93423ED0B3F1804F3BD0A2F52F
:10508C009432934237D002F58062934233D01A683F
:10509C0042F001021A60002039E0042908D00829E6
:1050AC000DD094F84130DBB2013B18BF0123CFE7A0
:1050BC0094F83F30DBB2013B18BF0123C8E794F8EA
:1050CC004030DBB2013B18BF0123C1E7042805D0F7
:1050DC00082807D0022384F84130C0E7022384F863
:1050EC003F30BCE7022384F84030B8E75A6C42F4F6
:1050FC0000425A64BCE79A6802F00702062A07D0FD
:10510C001A6842F001021A60002000E0012010BD74
:10511C000020FCE7002C0140134BC0F88030134BEF
:10512C00C0F88430124BC0F88830124BC0F88C3069
:10513C00114BC0F89030114BC0F89430104BC0F8A4
:10514C009830104BC0F89C300F4BC0F8A0300F4B70
:10515C00C0F8A4300E4BC0F8A8300E4BC0F8AC30E1
:10516C000D4BC0F8B0307047110C00081B4A0008FA
:10517C00274A0008294A00081F4A0008214A00084B
:10518C001D4A0008234A0008254A00082B4A00083B
:10519C0033540008355400083754000880B310B558
:1051AC00044690F83D30F3B1022384F83D3021469B
:1051BC0051F8040BFFF7E6FD012384F8463084F820
:1051CC003E3084F83F3084F8403084F8413084F825
:1051DC00423084F8433084F8443084F8453084F805
:1051EC003D30002010BD80F83C30FFF795FFA36CDC
:1051FC001BB1A36C20469847D6E7024BA364F8E793
:10520C0001207047890D000880B310B5044690F852
:10521C003D30F3B1022384F83D30214651F8040BA4
:10522C00FFF7B0FD012384F8463084F83E3084F853
:10523C003F3084F8403084F8413084F8423084F8B0
:10524C00433084F8443084F8453084F83D300020F5
:10525C0010BD80F83C30FFF75FFF236E1BB1236E4F
:10526C0020469847D6E7024B2366F8E701207047A3
:10527C00194A000801F01F01042303FA01FC036A18
:10528C0023EA0C030362036A02FA01F10B43036283
:10529C007047000010B50446084659BB94F84230DC
:1052AC00DBB2013B18BF0123002B57D100283AD1A8
:1052BC00022384F84230042201462068FFF7DAFF0B
:1052CC002268536C43F4004353642368254A934289
:1052DC0039D0B3F1804F36D0A2F59432934232D00C
:1052EC0002F5806293422ED01A6842F001021A60D5
:1052FC00002034E0042908D008290DD094F845305A
:10530C00DBB2013B18BF0123CEE794F84330DBB28C
:10531C00013B18BF0123C7E794F84430DBB2013BD3
:10532C0018BF0123C0E7042805D0082807D00223A2
:10533C0084F84530BFE7022384F84330BBE70223EF
:10534C0084F84430B7E79A6802F00702062A07D0BF
:10535C001A6842F001021A60002000E0012010BD22
:10536C000020FCE7002C014090F83C30012B2CD0A5
:10537C0010B4012380F83C30022380F83D300368E0
:10538C005A689C6822F0700C0A6842EA0C025A6057
:10539C0003680F4A93420AD0B3F1804F07D0A2F5AD
:1053AC009432934203D002F58062934204D124F0EC
:1053BC0080044A6814439C60012380F83D3000232C
:1053CC0080F83C30184610BC70470220704700BF74
:1053DC00002C014090F83C30012B22D0012380F8A6
:1053EC003C30CB6823F440738A68134323F4806306
:1053FC004A68134323F400630A68134323F480536D
:10540C000A69134323F400534A69134323F480437A
:10541C00CA69134302685364002380F83C30184671
:10542C00704702207047704770477047704770474D
:10543C007047704770477047704770470268D36871
:10544C0023F49073D3600268536923F00103536112
:10545C00036B012B05D0202380F83E30002303631F
:10546C0070470268D36823F01003D360F3E708B5E4
:10547C00406A0023C385C384436D984708BD90F8E8
:10548C003D30DBB2212B01D0022070478368B3F58D
:10549C00805F17D0036A5A1C02621A7803685A603C
:1054AC00C38C9BB2013B9BB2C3844BB90268D368DB
:1054BC0023F08003D3600268D36843F04003D360C9
:1054CC00002070470369002BE4D1036A1B88026833
:1054DC00C3F308035360036A02330362E0E708B5C1
:1054EC000168CA6822F04002CA60202280F83D2080
:1054FC00836C9847002008BD90F83E30DBB2222B1D
:10550C0060D18368B3F5805F32D0826AB3F5805F77
:10551C0004D0002B39D10369002B36D103685B68AA
:10552C001370836A01338362C38D9BB2013B9BB2C0
:10553C00C385002B48D100B583B00268D36823F033
:10554C002003D3600268D36823F48073D3600268AD
:10555C00536923F001035361202380F83E30036B21
:10556C00012B18D0036D9847002003B05DF804FBA5
:10557C000269002AC9D1826A03685B68C3F3080315
:10558C001380836A02338362CEE703685B6803F09F
:10559C007F031370C5E7002303630268D36823F00D
:1055AC001003D36003681A6812F0100F06D00022A3
:1055BC0001921A6801925B680193019B836E818D45
:1055CC009847D1E7022070470020704710B5044679
:1055DC000268136923F44053C1680B431361836859
:1055EC000269134342691A430168CB6823F4B05330
:1055FC0023F00C031343CB600268536923F440730C
:10560C0081690B4353610268134B9A4220D0FEF719
:10561C0041F8024602EB820202EB820263689B00B5
:10562C00B2FBF3F20D48A0FB02314909642303FBE2
:10563C0011231B013233A0FB03235B0903F0F0029F
:10564C0002EB011203F00F03216813448B6010BDB1
:10565C00FEF730F80246DDE7003801401F85EB51BC
:10566C002DE9F84305460F4616469946DDF820808D
:10567C002C68246837EA04030CBF4FF0010C4FF080
:10568C00000CB4451FD1B8F1FF3FF1D0B8F1000FB9
:10569C0005D0FDF7E7FCA0EB09004045E8D92A68E6
:1056AC00D36823F4D073D3602A68536923F00103C1
:1056BC005361202385F83D3085F83E30002385F872
:1056CC003C30032000E00020BDE8F8832DE9F041D8
:1056DC0082B01E4690F83D30DBB2202B54D10446EC
:1056EC000D469046002953D0002A53D090F83C30F8
:1056FC00012B51D0012380F83C300023036421237B
:10570C0080F83D30FDF7AEFC0746A4F82480A4F8E1
:10571C002680A368B3F5805F05D04FF00008002306
:10572C0084F83C3012E0236913B14FF00008F6E71F
:10573C00A8460025F3E738F8023B2268C3F30803B8
:10574C005360E28C92B2013A92B2E284E38C9BB247
:10575C0073B100963B46002280212046FFF780FF64
:10576C00E0B9002DE7D015F8012B23685A60E8E763
:10577C0000963B46002240212046FFF771FF78B986
:10578C00202384F83D3000E0022002B0BDE8F08117
:10579C000120FAE70120F8E70220F6E70320F4E7FE
:1057AC000320F2E730B583B0044602681368D06872
:1057BC00516913F00F0505D113F0200F02D010F032
:1057CC00200F19D12DB111F0010119D110F4907FD6
:1057DC0016D1216B012975D013F0800F03D010F076
:1057EC00800F40F0D78013F0400F03D010F0400F23
:1057FC0040F0D48003B030BD2046FFF77DFEF9E7C2
:10580C0013F0010F06D010F4807F03D0226C42F00D
:10581C000102226413F0040F04D019B1226C42F07F
:10582C000202226413F0020F04D019B1226C42F070
:10583C000402226413F0080F07D010F0200F00D1DF
:10584C0019B1226C42F008022264226C002AD1D0D9
:10585C0013F0200F02D010F0200F21D123685B69C8
:10586C0003F04003226C12F0080F00D123B3204642
:10587C00FFF7E4FD23685A6912F0400F18D05A69FB
:10588C0022F040025A61A36B73B1464A5A63A06B73
:10589C00FEF76EF90028ADD0A06B436B9847A9E7D3
:1058AC002046FFF729FED9E7636D20469847A1E70C
:1058BC00636D204698479DE7636D2046984700230B
:1058CC00236497E713F0100F86D010F0100F83D0DD
:1058DC00002301931368019353680193019B53694F
:1058EC0013F0400F32D0A16B0B685B689BB2002B9E
:1058FC0080D0A08D98427FF67DAFE3858B69202BFD
:10590C0008D1A26EA18DE38D9BB2C91A89B2204633
:10591C0090476FE7D36823F48073D3602268536990
:10592C0023F0010353612268536923F04003536150
:10593C00202384F83E30002323632268D36823F0AD
:10594C001003D360A06BFEF7F0F8DAE7A18DE38DBE
:10595C009BB2C91A89B2E38D9BB2002B3FF44AAFBC
:10596C0000293FF447AFD36823F49073D3602268C7
:10597C00536923F001035361202384F83E30002344
:10598C0023632268D36823F01003D360A36E2046F0
:10599C0098472FE72046FFF772FD2BE72046FFF7CD
:1059AC009EFD27E77B540008094B4364094B836435
:1059BC00094BC364094B0365094B4365094B83656C
:1059CC00094BC365094B0366094B8366704700BFDF
:1059DC003B540008395400083D5400089D29000828
:1059EC003F54000841540008435400084554000833
:1059FC0047540008002833D010B5044690F83D30C9
:105A0C000BB3242384F83D302268D36823F400536D
:105A1C00D3602046FFF7DAFD2268136923F4904324
:105A2C0013612268536923F02A0353612268D368F7
:105A3C0043F40053D36000202064202384F83D30CD
:105A4C0084F83E3010BD80F83C30FFF7ADFFE36EBC
:105A5C001BB1E36E20469847D3E7024BE366F8E7A9
:105A6C0001207047E50E0008034681628285C285DD
:105A7C0000201864222283F83E2083F83C00196829
:105A8C00CA6842F48072CA6019684A6942F001021D
:105A9C004A611A68D36843F02003D360704708B595
:105AAC0090F83E30DBB2202B0DD171B17AB190F869
:105ABC003C30012B0DD0012380F83C3000230363D4
:105ACC00FFF7D2FF00E0022008BD0120FCE7012017
